{
    "_format": "hh-sol-artifact-1",
    "contractName": "Pool",
    "sourceName": "contracts/Pool.sol",
    "abi": [
        {
            "inputs": [
                {
                    "internalType": "address",
                    "name": "_factory",
                    "type": "address"
                },
                {
                    "internalType": "uint256",
                    "name": "_vesting_Percent",
                    "type": "uint256"
                },
                {
                    "internalType": "contract IERC20",
                    "name": "_token",
                    "type": "address"
                },
                {
                    "internalType": "uint256",
                    "name": "_tokenTarget",
                    "type": "uint256"
                },
                {
                    "internalType": "address",
                    "name": "_weiToken",
                    "type": "address"
                },
                {
                    "internalType": "uint256",
                    "name": "_ratio",
                    "type": "uint256"
                },
                {
                    "internalType": "uint256",
                    "name": "_minWei",
                    "type": "uint256"
                },
                {
                    "internalType": "uint256",
                    "name": "_maxWei",
                    "type": "uint256"
                },
                {
                    "internalType": "uint256",
                    "name": "_poolId",
                    "type": "uint256"
                }
            ],
            "stateMutability": "nonpayable",
            "type": "constructor"
        },
        {
            "anonymous": false,
            "inputs": [
                {
                    "indexed": false,
                    "internalType": "string",
                    "name": "meta",
                    "type": "string"
                },
                {
                    "indexed": false,
                    "internalType": "uint256",
                    "name": "poolId",
                    "type": "uint256"
                }
            ],
            "name": "MetaDataChanged",
            "type": "event"
        },
        {
            "anonymous": false,
            "inputs": [
                {
                    "indexed": true,
                    "internalType": "address",
                    "name": "previousOwner",
                    "type": "address"
                },
                {
                    "indexed": true,
                    "internalType": "address",
                    "name": "newOwner",
                    "type": "address"
                }
            ],
            "name": "OwnershipTransferred",
            "type": "event"
        },
        {
            "anonymous": false,
            "inputs": [
                {
                    "indexed": false,
                    "internalType": "enum Pool.PoolType",
                    "name": "poolType",
                    "type": "uint8"
                },
                {
                    "indexed": false,
                    "internalType": "uint256",
                    "name": "startTime",
                    "type": "uint256"
                },
                {
                    "indexed": false,
                    "internalType": "uint256",
                    "name": "endTime",
                    "type": "uint256"
                },
                {
                    "indexed": false,
                    "internalType": "uint256",
                    "name": "claimTime",
                    "type": "uint256"
                },
                {
                    "indexed": false,
                    "internalType": "uint256",
                    "name": "vesting",
                    "type": "uint256"
                },
                {
                    "indexed": false,
                    "internalType": "uint256",
                    "name": "poolId",
                    "type": "uint256"
                }
            ],
            "name": "PoolBaseDataInitialized",
            "type": "event"
        },
        {
            "anonymous": false,
            "inputs": [
                {
                    "indexed": false,
                    "internalType": "address",
                    "name": "token",
                    "type": "address"
                },
                {
                    "indexed": false,
                    "internalType": "address",
                    "name": "weiToken",
                    "type": "address"
                },
                {
                    "indexed": false,
                    "internalType": "uint256",
                    "name": "tokenTarget",
                    "type": "uint256"
                },
                {
                    "indexed": false,
                    "internalType": "uint256",
                    "name": "ratio",
                    "type": "uint256"
                },
                {
                    "indexed": false,
                    "internalType": "uint256",
                    "name": "minWei",
                    "type": "uint256"
                },
                {
                    "indexed": false,
                    "internalType": "uint256",
                    "name": "maxWei",
                    "type": "uint256"
                },
                {
                    "indexed": false,
                    "internalType": "uint256",
                    "name": "poolId",
                    "type": "uint256"
                }
            ],
            "name": "PoolInitialized",
            "type": "event"
        },
        {
            "anonymous": false,
            "inputs": [
                {
                    "indexed": false,
                    "internalType": "address",
                    "name": "buyer",
                    "type": "address"
                },
                {
                    "indexed": false,
                    "internalType": "uint256",
                    "name": "vestedTerm",
                    "type": "uint256"
                },
                {
                    "indexed": false,
                    "internalType": "uint256",
                    "name": "vestingInstallment",
                    "type": "uint256"
                },
                {
                    "indexed": false,
                    "internalType": "uint256",
                    "name": "totalAmount",
                    "type": "uint256"
                },
                {
                    "indexed": false,
                    "internalType": "uint256",
                    "name": "vesting",
                    "type": "uint256"
                }
            ],
            "name": "PoolProgressAfterVesting",
            "type": "event"
        },
        {
            "anonymous": false,
            "inputs": [
                {
                    "indexed": false,
                    "internalType": "address",
                    "name": "buyer",
                    "type": "address"
                },
                {
                    "indexed": false,
                    "internalType": "uint256",
                    "name": "amount",
                    "type": "uint256"
                },
                {
                    "indexed": false,
                    "internalType": "uint256",
                    "name": "totalOwed",
                    "type": "uint256"
                },
                {
                    "indexed": false,
                    "internalType": "uint256",
                    "name": "weiRaised",
                    "type": "uint256"
                },
                {
                    "indexed": false,
                    "internalType": "uint256",
                    "name": "poolId",
                    "type": "uint256"
                }
            ],
            "name": "PoolProgressChanged",
            "type": "event"
        },
        {
            "stateMutability": "payable",
            "type": "fallback"
        },
        {
            "inputs": [
                {
                    "internalType": "address[]",
                    "name": "_addresses",
                    "type": "address[]"
                }
            ],
            "name": "addMultipleWhitelistedAddresses",
            "outputs": [],
            "stateMutability": "nonpayable",
            "type": "function"
        },
        {
            "inputs": [
                {
                    "internalType": "address",
                    "name": "_address",
                    "type": "address"
                }
            ],
            "name": "addWhitelistedAddress",
            "outputs": [],
            "stateMutability": "nonpayable",
            "type": "function"
        },
        {
            "inputs": [
                {
                    "internalType": "uint256",
                    "name": "weiAmount",
                    "type": "uint256"
                }
            ],
            "name": "buy",
            "outputs": [],
            "stateMutability": "nonpayable",
            "type": "function"
        },
        {
            "inputs": [],
            "name": "buyWithEth",
            "outputs": [],
            "stateMutability": "payable",
            "type": "function"
        },
        {
            "inputs": [
                {
                    "internalType": "address",
                    "name": "_address",
                    "type": "address"
                }
            ],
            "name": "checkWhitelistedAddress",
            "outputs": [
                {
                    "internalType": "bool",
                    "name": "isIndeed",
                    "type": "bool"
                }
            ],
            "stateMutability": "view",
            "type": "function"
        },
        {
            "inputs": [],
            "name": "claim",
            "outputs": [],
            "stateMutability": "nonpayable",
            "type": "function"
        },
        {
            "inputs": [],
            "name": "claimTime",
            "outputs": [
                {
                    "internalType": "uint256",
                    "name": "",
                    "type": "uint256"
                }
            ],
            "stateMutability": "view",
            "type": "function"
        },
        {
            "inputs": [
                {
                    "internalType": "address",
                    "name": "",
                    "type": "address"
                }
            ],
            "name": "claimable",
            "outputs": [
                {
                    "internalType": "uint256",
                    "name": "",
                    "type": "uint256"
                }
            ],
            "stateMutability": "view",
            "type": "function"
        },
        {
            "inputs": [
                {
                    "internalType": "address",
                    "name": "",
                    "type": "address"
                }
            ],
            "name": "claimable1",
            "outputs": [
                {
                    "internalType": "uint256",
                    "name": "",
                    "type": "uint256"
                }
            ],
            "stateMutability": "view",
            "type": "function"
        },
        {
            "inputs": [
                {
                    "internalType": "address",
                    "name": "user",
                    "type": "address"
                }
            ],
            "name": "claimableAmount",
            "outputs": [
                {
                    "internalType": "uint256",
                    "name": "",
                    "type": "uint256"
                }
            ],
            "stateMutability": "view",
            "type": "function"
        },
        {
            "inputs": [],
            "name": "endTime",
            "outputs": [
                {
                    "internalType": "uint256",
                    "name": "",
                    "type": "uint256"
                }
            ],
            "stateMutability": "view",
            "type": "function"
        },
        {
            "inputs": [],
            "name": "factory",
            "outputs": [
                {
                    "internalType": "address",
                    "name": "",
                    "type": "address"
                }
            ],
            "stateMutability": "view",
            "type": "function"
        },
        {
            "inputs": [],
            "name": "getWhitelistedAddresses",
            "outputs": [
                {
                    "internalType": "address[]",
                    "name": "",
                    "type": "address[]"
                }
            ],
            "stateMutability": "view",
            "type": "function"
        },
        {
            "inputs": [],
            "name": "getwhiteListingCount",
            "outputs": [
                {
                    "internalType": "uint256",
                    "name": "count",
                    "type": "uint256"
                }
            ],
            "stateMutability": "view",
            "type": "function"
        },
        {
            "inputs": [],
            "name": "maxWei",
            "outputs": [
                {
                    "internalType": "uint256",
                    "name": "",
                    "type": "uint256"
                }
            ],
            "stateMutability": "view",
            "type": "function"
        },
        {
            "inputs": [],
            "name": "meta",
            "outputs": [
                {
                    "internalType": "string",
                    "name": "",
                    "type": "string"
                }
            ],
            "stateMutability": "view",
            "type": "function"
        },
        {
            "inputs": [],
            "name": "minWei",
            "outputs": [
                {
                    "internalType": "uint256",
                    "name": "",
                    "type": "uint256"
                }
            ],
            "stateMutability": "view",
            "type": "function"
        },
        {
            "inputs": [],
            "name": "numeric",
            "outputs": [
                {
                    "internalType": "uint256",
                    "name": "",
                    "type": "uint256"
                }
            ],
            "stateMutability": "view",
            "type": "function"
        },
        {
            "inputs": [],
            "name": "owner",
            "outputs": [
                {
                    "internalType": "address",
                    "name": "",
                    "type": "address"
                }
            ],
            "stateMutability": "view",
            "type": "function"
        },
        {
            "inputs": [],
            "name": "poolId",
            "outputs": [
                {
                    "internalType": "uint256",
                    "name": "",
                    "type": "uint256"
                }
            ],
            "stateMutability": "view",
            "type": "function"
        },
        {
            "inputs": [],
            "name": "poolType",
            "outputs": [
                {
                    "internalType": "enum Pool.PoolType",
                    "name": "",
                    "type": "uint8"
                }
            ],
            "stateMutability": "view",
            "type": "function"
        },
        {
            "inputs": [],
            "name": "ratio",
            "outputs": [
                {
                    "internalType": "uint256",
                    "name": "",
                    "type": "uint256"
                }
            ],
            "stateMutability": "view",
            "type": "function"
        },
        {
            "inputs": [
                {
                    "internalType": "address",
                    "name": "_address",
                    "type": "address"
                }
            ],
            "name": "removeWhitelistedAddress",
            "outputs": [],
            "stateMutability": "nonpayable",
            "type": "function"
        },
        {
            "inputs": [],
            "name": "renounceOwnership",
            "outputs": [],
            "stateMutability": "nonpayable",
            "type": "function"
        },
        {
            "inputs": [
                {
                    "internalType": "enum Pool.PoolType",
                    "name": "_poolType",
                    "type": "uint8"
                },
                {
                    "internalType": "uint256",
                    "name": "_vesting_Percent",
                    "type": "uint256"
                },
                {
                    "internalType": "uint256",
                    "name": "_startTime",
                    "type": "uint256"
                },
                {
                    "internalType": "uint256",
                    "name": "_endTime",
                    "type": "uint256"
                },
                {
                    "internalType": "uint256",
                    "name": "_claimTime",
                    "type": "uint256"
                }
            ],
            "name": "setBaseData",
            "outputs": [],
            "stateMutability": "nonpayable",
            "type": "function"
        },
        {
            "inputs": [],
            "name": "stakingTime",
            "outputs": [
                {
                    "internalType": "uint256",
                    "name": "",
                    "type": "uint256"
                }
            ],
            "stateMutability": "view",
            "type": "function"
        },
        {
            "inputs": [],
            "name": "startTime",
            "outputs": [
                {
                    "internalType": "uint256",
                    "name": "",
                    "type": "uint256"
                }
            ],
            "stateMutability": "view",
            "type": "function"
        },
        {
            "inputs": [],
            "name": "symbols",
            "outputs": [
                {
                    "internalType": "string",
                    "name": "",
                    "type": "string"
                }
            ],
            "stateMutability": "view",
            "type": "function"
        },
        {
            "inputs": [],
            "name": "testtoken",
            "outputs": [
                {
                    "internalType": "address",
                    "name": "",
                    "type": "address"
                }
            ],
            "stateMutability": "view",
            "type": "function"
        },
        {
            "inputs": [],
            "name": "token",
            "outputs": [
                {
                    "internalType": "contract IERC20",
                    "name": "",
                    "type": "address"
                }
            ],
            "stateMutability": "view",
            "type": "function"
        },
        {
            "inputs": [],
            "name": "tokenTarget",
            "outputs": [
                {
                    "internalType": "uint256",
                    "name": "",
                    "type": "uint256"
                }
            ],
            "stateMutability": "view",
            "type": "function"
        },
        {
            "inputs": [],
            "name": "totalOwed",
            "outputs": [
                {
                    "internalType": "uint256",
                    "name": "",
                    "type": "uint256"
                }
            ],
            "stateMutability": "view",
            "type": "function"
        },
        {
            "inputs": [
                {
                    "internalType": "address",
                    "name": "newOwner",
                    "type": "address"
                }
            ],
            "name": "transferOwnership",
            "outputs": [],
            "stateMutability": "nonpayable",
            "type": "function"
        },
        {
            "inputs": [],
            "name": "vestedTerm",
            "outputs": [
                {
                    "internalType": "uint256",
                    "name": "",
                    "type": "uint256"
                }
            ],
            "stateMutability": "view",
            "type": "function"
        },
        {
            "inputs": [],
            "name": "vesting",
            "outputs": [
                {
                    "internalType": "uint256",
                    "name": "",
                    "type": "uint256"
                }
            ],
            "stateMutability": "view",
            "type": "function"
        },
        {
            "inputs": [],
            "name": "vestingClaim",
            "outputs": [],
            "stateMutability": "nonpayable",
            "type": "function"
        },
        {
            "inputs": [
                {
                    "internalType": "address",
                    "name": "",
                    "type": "address"
                }
            ],
            "name": "vestingDate",
            "outputs": [
                {
                    "internalType": "uint256",
                    "name": "",
                    "type": "uint256"
                }
            ],
            "stateMutability": "view",
            "type": "function"
        },
        {
            "inputs": [
                {
                    "internalType": "address",
                    "name": "",
                    "type": "address"
                }
            ],
            "name": "vestingPeriod",
            "outputs": [
                {
                    "internalType": "uint256",
                    "name": "",
                    "type": "uint256"
                }
            ],
            "stateMutability": "view",
            "type": "function"
        },
        {
            "inputs": [
                {
                    "internalType": "address",
                    "name": "",
                    "type": "address"
                }
            ],
            "name": "vestingTerm",
            "outputs": [
                {
                    "internalType": "uint256",
                    "name": "",
                    "type": "uint256"
                }
            ],
            "stateMutability": "view",
            "type": "function"
        },
        {
            "inputs": [],
            "name": "weiRaised",
            "outputs": [
                {
                    "internalType": "uint256",
                    "name": "",
                    "type": "uint256"
                }
            ],
            "stateMutability": "view",
            "type": "function"
        },
        {
            "inputs": [],
            "name": "weiToken",
            "outputs": [
                {
                    "internalType": "address",
                    "name": "",
                    "type": "address"
                }
            ],
            "stateMutability": "view",
            "type": "function"
        },
        {
            "inputs": [
                {
                    "internalType": "uint256",
                    "name": "",
                    "type": "uint256"
                }
            ],
            "name": "whitelistaddresses",
            "outputs": [
                {
                    "internalType": "address",
                    "name": "",
                    "type": "address"
                }
            ],
            "stateMutability": "view",
            "type": "function"
        },
        {
            "inputs": [
                {
                    "internalType": "address",
                    "name": "",
                    "type": "address"
                }
            ],
            "name": "whitelistedAddresses",
            "outputs": [
                {
                    "internalType": "bool",
                    "name": "",
                    "type": "bool"
                }
            ],
            "stateMutability": "view",
            "type": "function"
        },
        {
            "inputs": [],
            "name": "withdrawToken",
            "outputs": [],
            "stateMutability": "nonpayable",
            "type": "function"
        },
        {
            "inputs": [
                {
                    "internalType": "uint256",
                    "name": "amount",
                    "type": "uint256"
                }
            ],
            "name": "withdrawWei",
            "outputs": [],
            "stateMutability": "payable",
            "type": "function"
        },
        {
            "inputs": [
                {
                    "internalType": "uint256",
                    "name": "amount",
                    "type": "uint256"
                }
            ],
            "name": "withdrawWeiToken",
            "outputs": [],
            "stateMutability": "nonpayable",
            "type": "function"
        },
        {
            "stateMutability": "payable",
            "type": "receive"
        }
    ],
    "bytecode": "0x60806040523480156200001157600080fd5b5060405162002dde38038062002dde833981016040819052620000349162000239565b6200003f33620001e9565b600180556001600160a01b038916620000b15760405162461bcd60e51b815260206004820152602960248201527f7a65726f20616464726573732070726f766964656420666f7220666163746f7260448201526879206164647265737360b81b60648201526084015b60405180910390fd5b6001600160a01b038716620001195760405162461bcd60e51b815260206004820152602760248201527f7a65726f20616464726573732070726f766964656420666f7220746f6b656e206044820152666164647265737360c81b6064820152608401620000a8565b600e88905560006009556008819055600680546001600160a01b038981166001600160a01b031992831681179093556007899055600a80548983169084168117909155600f88905560148790556015869055601f8054928e1692909316919091179091556040805192835260208301919091528101879052606081018590526080810184905260a0810183905260c081018290527fd215acda5277aab07ea7941e323707996f209ea1a079da0da4260e8d3d98ae449060e00160405180910390a1505050505050505050620002e0565b600080546001600160a01b038381166001600160a01b0319831681178455604051919092169283917f8be0079c531659141344cd1fd0a4f28419497f9722a3daafe3b4186f6b6457e09190a35050565b60008060008060008060008060006101208a8c03121562000258578485fd5b89516200026581620002c7565b60208b015160408c0151919a5098506200027f81620002c7565b60608b015160808c015191985096506200029981620002c7565b8095505060a08a0151935060c08a0151925060e08a015191506101008a015190509295985092959850929598565b6001600160a01b0381168114620002dd57600080fd5b50565b612aee80620002f06000396000f3fe6080604052600436106103005760003560e01c8063782e1e6c1161018f578063b04d4ad6116100e1578063d40ec1371161008a578063f12ce84811610064578063f12ce8481461082a578063f2fde38b1461084a578063fc0c546a1461086a5761030f565b8063d40ec137146107d4578063d96a094a146107f4578063e7fa9f7d146108145761030f565b8063c45a0155116100bb578063c45a01551461078a578063c885044e146107aa578063ca628c78146107bf5761030f565b8063b04d4ad6146106fd578063b1dd61b61461072a578063c1aa2436146107515761030f565b80638da5cb5b11610143578063a1ac4d131161011d578063a1ac4d13146106a5578063a97b1099146106d2578063addd7020146106e75761030f565b80638da5cb5b14610644578063959cb78a146106625780639d8f2cea1461068f5761030f565b8063898850491161017457806389885049146105d75780638bfeefec146105f75780638c399cbb146106175761030f565b8063782e1e6c146105ab57806378e97925146105c15761030f565b80633e0dc34e11610253578063524c9aa4116101fc5780636d028027116101d65780636d0280271461055e578063715018a61461058057806371ca337d146105955761030f565b8063524c9aa414610508578063530cd5ab146105285780635f2cb6f2146105485761030f565b80634042b66f1161022d5780634042b66f146104c757806344c63eec146104dd5780634e71d92d146104f35761030f565b80633e0dc34e1461044c5780633fa69faa14610462578063402914f51461049a5761030f565b806311b5444f116102b557806327b3bf111161028f57806327b3bf111461040057806329975b43146104165780633197cbb6146104365761030f565b806311b5444f1461030f578063146d4574146103d55780631a3d40d5146103eb5761030f565b806306c933d8116102e657806306c933d81461036057806307039ff9146103a05780630d6f8563146103c25761030f565b80622e9f3614610317578063068b7310146103375761030f565b3661030f5761030d61088a565b005b61030d61088a565b34801561032357600080fd5b5061030d61033236600461286b565b610a21565b34801561034357600080fd5b5061034d60155481565b6040519081526020015b60405180910390f35b34801561036c57600080fd5b5061039061037b36600461273a565b60026020526000908152604090205460ff1681565b6040519015158152602001610357565b3480156103ac57600080fd5b506103b5610cd7565b604051610357919061296a565b61030d6103d036600461286b565b610d65565b3480156103e157600080fd5b5061034d60105481565b3480156103f757600080fd5b5060055461034d565b34801561040c57600080fd5b5061034d60135481565b34801561042257600080fd5b5061030d61043136600461273a565b610fed565b34801561044257600080fd5b5061034d60125481565b34801561045857600080fd5b5061034d60085481565b34801561046e57600080fd5b50600b54610482906001600160a01b031681565b6040516001600160a01b039091168152602001610357565b3480156104a657600080fd5b5061034d6104b536600461273a565b601b6020526000908152604090205481565b3480156104d357600080fd5b5061034d601e5481565b3480156104e957600080fd5b5061034d600e5481565b3480156104ff57600080fd5b5061030d6110a1565b34801561051457600080fd5b5061030d610523366004612783565b6111c1565b34801561053457600080fd5b5061030d61054336600461273a565b611325565b34801561055457600080fd5b5061034d60095481565b34801561056a57600080fd5b506105736113a0565b60405161035791906128d9565b34801561058c57600080fd5b5061030d611402565b3480156105a157600080fd5b5061034d600f5481565b3480156105b757600080fd5b5061034d60075481565b3480156105cd57600080fd5b5061034d60115481565b3480156105e357600080fd5b5061034d6105f236600461273a565b611468565b34801561060357600080fd5b50600a54610482906001600160a01b031681565b34801561062357600080fd5b5061034d61063236600461273a565b601d6020526000908152604090205481565b34801561065057600080fd5b506000546001600160a01b0316610482565b34801561066e57600080fd5b5061034d61067d36600461273a565b601c6020526000908152604090205481565b34801561069b57600080fd5b5061034d600d5481565b3480156106b157600080fd5b5061034d6106c036600461273a565b601a6020526000908152604090205481565b3480156106de57600080fd5b5061030d611495565b3480156106f357600080fd5b5061034d60145481565b34801561070957600080fd5b5061034d61071836600461273a565b60196020526000908152604090205481565b34801561073657600080fd5b506016546107449060ff1681565b6040516103579190612926565b34801561075d57600080fd5b5061039061076c36600461273a565b6001600160a01b031660009081526002602052604090205460ff1690565b34801561079657600080fd5b50601f54610482906001600160a01b031681565b3480156107b657600080fd5b506103b56118ad565b3480156107cb57600080fd5b5061030d6118ba565b3480156107e057600080fd5b5061030d6107ef366004612825565b611a08565b34801561080057600080fd5b5061030d61080f36600461286b565b611b4d565b34801561082057600080fd5b5061034d60185481565b34801561083657600080fd5b5061048261084536600461286b565b611dd9565b34801561085657600080fd5b5061030d61086536600461273a565b611e03565b34801561087657600080fd5b50600654610482906001600160a01b031681565b600a546001600160a01b0316156108e85760405162461bcd60e51b815260206004820152601660248201527f49742773206e6f74206574682d62757920706f6f6c210000000000000000000060448201526064015b60405180910390fd5b6108f0611ee2565b6014543410156109425760405162461bcd60e51b815260206004820152600e60248201527f616d6f756e7420746f6f206c6f7700000000000000000000000000000000000060448201526064016108df565b6000600f543461095291906129d5565b336000908152601b602052604081208054929350349290919061097690849061299d565b92505081905550806018600082825461098f919061299d565b9250508190555034601e60008282546109a8919061299d565b9091555050336000818152601b6020908152604080832054601a83529281902092909255601854601e54600854845195865234938601939093528484019190915260608401526080830152517f8e18fe979db6b1b87bf8f7f3962a48ee2a53ad1f931dfe00515d4d8e901fe9b29181900360a00190a150565b6000546001600160a01b03163314610a7b5760405162461bcd60e51b815260206004820181905260248201527f4f776e61626c653a2063616c6c6572206973206e6f7420746865206f776e657260448201526064016108df565b6012544211610acc5760405162461bcd60e51b815260206004820152601660248201527f506f6f6c20686173206e6f742079657420656e6465640000000000000000000060448201526064016108df565b600a546001600160a01b0316610b245760405162461bcd60e51b815260206004820152601860248201527f49742773206e6f7420746f6b656e2d62757920706f6f6c21000000000000000060448201526064016108df565b600a546040516370a0823160e01b815230600482015282916001600160a01b0316906370a082319060240160206040518083038186803b158015610b6757600080fd5b505afa158015610b7b573d6000803e3d6000fd5b505050506040513d601f19601f82011682018060405250810190610b9f9190612883565b1015610bf85760405162461bcd60e51b815260206004820152602260248201527f43616e2774207769746864726177206d6f7265207468616e20796f7520686176604482015261329760f11b60648201526084016108df565b601f54604080516202eab760e01b8152815160009384936001600160a01b03909116926202eab79260048083019392829003018186803b158015610c3b57600080fd5b505afa158015610c4f573d6000803e3d6000fd5b505050506040513d601f19601f82011682018060405250810190610c739190612756565b909250905060006103e8610c8783866129d5565b610c9191906129b5565b90506000610c9f82866129f4565b600a54909150610cb9906001600160a01b031685846121e3565b600a54610cd0906001600160a01b031633836121e3565b5050505050565b600c8054610ce490612a37565b80601f0160208091040260200160405190810160405280929190818152602001828054610d1090612a37565b8015610d5d5780601f10610d3257610100808354040283529160200191610d5d565b820191906000526020600020905b815481529060010190602001808311610d4057829003601f168201915b505050505081565b6000546001600160a01b03163314610dbf5760405162461bcd60e51b815260206004820181905260248201527f4f776e61626c653a2063616c6c6572206973206e6f7420746865206f776e657260448201526064016108df565b60026001541415610e125760405162461bcd60e51b815260206004820152601f60248201527f5265656e7472616e637947756172643a207265656e7472616e742063616c6c0060448201526064016108df565b60026001556012544211610e685760405162461bcd60e51b815260206004820152601660248201527f506f6f6c20686173206e6f742079657420656e6465640000000000000000000060448201526064016108df565b600a546001600160a01b031615610ec15760405162461bcd60e51b815260206004820152601660248201527f49742773206e6f74206574682d62757920706f6f6c210000000000000000000060448201526064016108df565b80471015610f1c5760405162461bcd60e51b815260206004820152602260248201527f43616e2774207769746864726177206d6f7265207468616e20796f7520686176604482015261329760f11b60648201526084016108df565b601f54604080516202eab760e01b8152815160009384936001600160a01b03909116926202eab79260048083019392829003018186803b158015610f5f57600080fd5b505afa158015610f73573d6000803e3d6000fd5b505050506040513d601f19601f82011682018060405250810190610f979190612756565b909250905060006103e8610fab83866129d5565b610fb591906129b5565b90506000610fc382866129f4565b9050610fd86001600160a01b0385168361228c565b610fe2338261228c565b505060018055505050565b6000546001600160a01b031633146110475760405162461bcd60e51b815260206004820181905260248201527f4f776e61626c653a2063616c6c6572206973206e6f7420746865206f776e657260448201526064016108df565b6001600160a01b0381166000818152600260209081526040808320805460ff191660011790556005805484526004909252822080546001600160a01b0319169093179092558154919061109983612a72565b919050555050565b601354421180156110b3575060135415155b6110ff5760405162461bcd60e51b815260206004820152601860248201527f636c61696d696e67206e6f7420616c6c6f77656420796574000000000000000060448201526064016108df565b336000908152601b602052604090205461115b5760405162461bcd60e51b815260206004820152601060248201527f6e6f7468696e6720746f20636c61696d0000000000000000000000000000000060448201526064016108df565b600f54336000908152601b60205260408120549091611179916129d5565b336000908152601b602052604081208190556018805492935083929091906111a29084906129f4565b90915550506006546111be906001600160a01b031633836121e3565b50565b6000546001600160a01b0316331461121b5760405162461bcd60e51b815260206004820181905260248201527f4f776e61626c653a2063616c6c6572206973206e6f7420746865206f776e657260448201526064016108df565b60005b818110156113205760016002600085858581811061124c57634e487b7160e01b600052603260045260246000fd5b9050602002016020810190611261919061273a565b6001600160a01b031681526020810191909152604001600020805460ff19169115159190911790558282828181106112a957634e487b7160e01b600052603260045260246000fd5b90506020020160208101906112be919061273a565b60058054600090815260046020526040812080546001600160a01b0319166001600160a01b0394909416939093179092558054916112fb83612a72565b9091555061130d9050600384846126c2565b508061131881612a72565b91505061121e565b505050565b6000546001600160a01b0316331461137f5760405162461bcd60e51b815260206004820181905260248201527f4f776e61626c653a2063616c6c6572206973206e6f7420746865206f776e657260448201526064016108df565b6001600160a01b03166000908152600260205260409020805460ff19169055565b606060038054806020026020016040519081016040528092919081815260200182805480156113f857602002820191906000526020600020905b81546001600160a01b031681526001909101906020018083116113da575b5050505050905090565b6000546001600160a01b0316331461145c5760405162461bcd60e51b815260206004820181905260248201527f4f776e61626c653a2063616c6c6572206973206e6f7420746865206f776e657260448201526064016108df565b61146660006123a5565b565b600f546001600160a01b0382166000908152601b6020526040812054909161148f916129d5565b92915050565b336000908152601b60205260409020546114f15760405162461bcd60e51b815260206004820152601060248201527f6e6f7468696e6720746f20636c61696d0000000000000000000000000000000060448201526064016108df565b60135442118015611503575060135415155b61154f5760405162461bcd60e51b815260206004820152601860248201527f636c61696d696e67206e6f74207965742073746172746564000000000000000060448201526064016108df565b336000908152601c602052604090205442116115ad5760405162461bcd60e51b815260206004820152601c60248201527f76657374696e672074696d65206e6f742079657420737461727465640000000060448201526064016108df565b336000908152601c602052604090205442106115fc576115d04262278d0061299d565b336000908152601c602052604081209190915560098054600192906115f690849061299d565b90915550505b6009543360009081526019602052604090205411156116835760405162461bcd60e51b815260206004820152602560248201527f76657374696e67207465726d20746f20636c61696d206e6f742073746172746560448201527f642079657400000000000000000000000000000000000000000000000000000060648201526084016108df565b3360009081526019602052604081208054600192906116a390849061299d565b9091555050336000908152601a6020526040812054600e549091906064906116cb90846129d5565b6116d591906129b5565b336000908152601b602052604090205490915081101561180b576000600f54826116ff91906129d5565b6006546040516370a0823160e01b81523060048201529192506001600160a01b0316906370a082319060240160206040518083038186803b15801561174357600080fd5b505afa158015611757573d6000803e3d6000fd5b505050506040513d601f19601f8201168201806040525081019061177b9190612883565b81106117c95760405162461bcd60e51b815260206004820152600e60248201527f62616c616e6365206973206c6f7700000000000000000000000000000000000060448201526064016108df565b6006546117e0906001600160a01b031633836121e3565b336000908152601b6020526040812080548492906117ff9084906129f4565b90915550611855915050565b600f54336000908152601b60205260408120549091611829916129d5565b600654909150611843906001600160a01b031633836121e3565b50336000908152601b60205260408120555b600954600e5460408051338152602081019390935282018390526060820184905260808201527f17ce194e9aaf1fb7117871a5f8268d64910bdc0a44895ed89f7e15dbcc5489899060a0015b60405180910390a15050565b60178054610ce490612a37565b6000546001600160a01b031633146119145760405162461bcd60e51b815260206004820181905260248201527f4f776e61626c653a2063616c6c6572206973206e6f7420746865206f776e657260448201526064016108df565b60125442116119655760405162461bcd60e51b815260206004820152601660248201527f506f6f6c20686173206e6f742079657420656e6465640000000000000000000060448201526064016108df565b6018546006546040516370a0823160e01b815230600482015261146692339290916001600160a01b03909116906370a082319060240160206040518083038186803b1580156119b357600080fd5b505afa1580156119c7573d6000803e3d6000fd5b505050506040513d601f19601f820116820180604052508101906119eb9190612883565b6119f591906129f4565b6006546001600160a01b031691906121e3565b6000546001600160a01b03163314611a625760405162461bcd60e51b815260206004820181905260248201527f4f776e61626c653a2063616c6c6572206973206e6f7420746865206f776e657260448201526064016108df565b60115415611ab25760405162461bcd60e51b815260206004820152601860248201527f426173654461746120697320616c72656164792073657421000000000000000060448201526064016108df565b6016805486919060ff191660018381811115611ade57634e487b7160e01b600052602160045260246000fd5b0217905550600e84905560108290556011839055601282905560138190556016546008546040517f1ada6f7a3c735951138b796caf845b19ae75a0d130056bfe671a3a75a28f1a2e92611b3e9260ff909116918791879187918b91612934565b60405180910390a15050505050565b600b80546001600160a01b03191630179055600f54611b6c90826129d5565b601854611b79919061299d565b600d55600a546001600160a01b0316611bd45760405162461bcd60e51b815260206004820152601860248201527f49742773206e6f7420746f6b656e2d62757920706f6f6c21000000000000000060448201526064016108df565b611bdc611ee2565b601454811015611c2e5760405162461bcd60e51b815260206004820152600e60248201527f616d6f756e7420746f6f206c6f7700000000000000000000000000000000000060448201526064016108df565b6000600f5482611c3e91906129d5565b601554336000908152601b602052604090205491925090611c6090849061299d565b1115611cd45760405162461bcd60e51b815260206004820152602560248201527f796f752063616e206e6f7420627579206d6f7265207468656e2074686973206160448201527f6d6f756e7400000000000000000000000000000000000000000000000000000060648201526084016108df565b600a54611cec906001600160a01b03163330856123f5565b336000908152601b6020526040902054611d0790839061299d565b336000908152601b602052604081209190915560188054839290611d2c90849061299d565b9250508190555081601e6000828254611d45919061299d565b9091555050336000908152601b6020908152604080832054601a90925290912055611d734262278d0061299d565b336000818152601c602090815260409182902093909355601854601e54600854835194855294840187905291830152606082015260808101919091527f8e18fe979db6b1b87bf8f7f3962a48ee2a53ad1f931dfe00515d4d8e901fe9b29060a0016118a1565b60038181548110611de957600080fd5b6000918252602090912001546001600160a01b0316905081565b6000546001600160a01b03163314611e5d5760405162461bcd60e51b815260206004820181905260248201527f4f776e61626c653a2063616c6c6572206973206e6f7420746865206f776e657260448201526064016108df565b6001600160a01b038116611ed95760405162461bcd60e51b815260206004820152602660248201527f4f776e61626c653a206e6577206f776e657220697320746865207a65726f206160448201527f646472657373000000000000000000000000000000000000000000000000000060648201526084016108df565b6111be816123a5565b60115415801590611ef4575060115442115b611f405760405162461bcd60e51b815260206004820152601860248201527f506f6f6c20686173206e6f74207965742073746172746564000000000000000060448201526064016108df565b60125415801590611f52575060125442105b611f9e5760405162461bcd60e51b815260206004820152601260248201527f506f6f6c20616c726561647920656e646564000000000000000000000000000060448201526064016108df565b600060165460ff166001811115611fc557634e487b7160e01b600052602160045260246000fd5b141561202a573360009081526002602052604090205460ff166114665760405162461bcd60e51b815260206004820152601760248201527f796f7520617265206e6f742077686974656c697374656400000000000000000060448201526064016108df565b600160165460ff16600181111561205157634e487b7160e01b600052602160045260246000fd5b141561146657601f54604080517f9551ae44000000000000000000000000000000000000000000000000000000008152815160009384936001600160a01b0390911692639551ae449260048083019392829003018186803b1580156120b557600080fd5b505afa1580156120c9573d6000803e3d6000fd5b505050506040513d601f19601f820116820180604052508101906120ed9190612813565b6040516370a0823160e01b8152336004820152919350915081906001600160a01b038416906370a082319060240160206040518083038186803b15801561213357600080fd5b505afa158015612147573d6000803e3d6000fd5b505050506040513d601f19601f8201168201806040525081019061216b9190612883565b10156121df5760405162461bcd60e51b815260206004820152602160248201527f596f7520646f6e2774206861766520656e6f756768206261736520544f4b454e60448201527f210000000000000000000000000000000000000000000000000000000000000060648201526084016108df565b5050565b6040516001600160a01b0383166024820152604481018290526113209084907fa9059cbb00000000000000000000000000000000000000000000000000000000906064015b60408051601f198184030181529190526020810180517bffffffffffffffffffffffffffffffffffffffffffffffffffffffff167fffffffff000000000000000000000000000000000000000000000000000000009093169290921790915261244c565b804710156122dc5760405162461bcd60e51b815260206004820152601d60248201527f416464726573733a20696e73756666696369656e742062616c616e636500000060448201526064016108df565b6000826001600160a01b03168260405160006040518083038185875af1925050503d8060008114612329576040519150601f19603f3d011682016040523d82523d6000602084013e61232e565b606091505b50509050806113205760405162461bcd60e51b815260206004820152603a60248201527f416464726573733a20756e61626c6520746f2073656e642076616c75652c207260448201527f6563697069656e74206d6179206861766520726576657274656400000000000060648201526084016108df565b600080546001600160a01b038381166001600160a01b0319831681178455604051919092169283917f8be0079c531659141344cd1fd0a4f28419497f9722a3daafe3b4186f6b6457e09190a35050565b6040516001600160a01b03808516602483015283166044820152606481018290526124469085907f23b872dd0000000000000000000000000000000000000000000000000000000090608401612228565b50505050565b60006124a1826040518060400160405280602081526020017f5361666545524332303a206c6f772d6c6576656c2063616c6c206661696c6564815250856001600160a01b03166125319092919063ffffffff16565b80519091501561132057808060200190518101906124bf91906127f3565b6113205760405162461bcd60e51b815260206004820152602a60248201527f5361666545524332303a204552433230206f7065726174696f6e20646964206e60448201527f6f7420737563636565640000000000000000000000000000000000000000000060648201526084016108df565b6060612540848460008561254a565b90505b9392505050565b6060824710156125c25760405162461bcd60e51b815260206004820152602660248201527f416464726573733a20696e73756666696369656e742062616c616e636520666f60448201527f722063616c6c000000000000000000000000000000000000000000000000000060648201526084016108df565b843b6126105760405162461bcd60e51b815260206004820152601d60248201527f416464726573733a2063616c6c20746f206e6f6e2d636f6e747261637400000060448201526064016108df565b600080866001600160a01b0316858760405161262c91906128bd565b60006040518083038185875af1925050503d8060008114612669576040519150601f19603f3d011682016040523d82523d6000602084013e61266e565b606091505b509150915061267e828286612689565b979650505050505050565b60608315612698575081612543565b8251156126a85782518084602001fd5b8160405162461bcd60e51b81526004016108df919061296a565b828054828255906000526020600020908101928215612715579160200282015b828111156127155781546001600160a01b0319166001600160a01b038435161782556020909201916001909101906126e2565b50612721929150612725565b5090565b5b808211156127215760008155600101612726565b60006020828403121561274b578081fd5b813561254381612aa3565b60008060408385031215612768578081fd5b825161277381612aa3565b6020939093015192949293505050565b60008060208385031215612795578182fd5b823567ffffffffffffffff808211156127ac578384fd5b818501915085601f8301126127bf578384fd5b8135818111156127cd578485fd5b8660208260051b85010111156127e1578485fd5b60209290920196919550909350505050565b600060208284031215612804578081fd5b81518015158114612543578182fd5b60008060408385031215612768578182fd5b600080600080600060a0868803121561283c578081fd5b85356002811061284a578182fd5b97602087013597506040870135966060810135965060800135945092505050565b60006020828403121561287c578081fd5b5035919050565b600060208284031215612894578081fd5b5051919050565b600281106128b957634e487b7160e01b600052602160045260246000fd5b9052565b600082516128cf818460208701612a0b565b9190910192915050565b6020808252825182820181905260009190848201906040850190845b8181101561291a5783516001600160a01b0316835292840192918401916001016128f5565b50909695505050505050565b6020810161148f828461289b565b60c08101612942828961289b565b602082019690965260408101949094526060840192909252608083015260a090910152919050565b6020815260008251806020840152612989816040850160208701612a0b565b601f01601f19169190910160400192915050565b600082198211156129b0576129b0612a8d565b500190565b6000826129d057634e487b7160e01b81526012600452602481fd5b500490565b60008160001904831182151516156129ef576129ef612a8d565b500290565b600082821015612a0657612a06612a8d565b500390565b60005b83811015612a26578181015183820152602001612a0e565b838111156124465750506000910152565b600181811c90821680612a4b57607f821691505b60208210811415612a6c57634e487b7160e01b600052602260045260246000fd5b50919050565b6000600019821415612a8657612a86612a8d565b5060010190565b634e487b7160e01b600052601160045260246000fd5b6001600160a01b03811681146111be57600080fdfea2646970667358221220d08523273d3d2ee852576a996904ddcdbabb06c22d5e8436d41d658002cf183c64736f6c63430008040033",
    "linkReferences": {},
    "deployedLinkReferences": {}
}