{
  "_format": "hh-sol-artifact-1",
  "contractName": "StakingPool",
  "sourceName": "contracts/StackingPool.sol",
  "abi": [
    {
      "anonymous": false,
      "inputs": [
        {
          "indexed": true,
          "internalType": "address",
          "name": "previousOwner",
          "type": "address"
        },
        {
          "indexed": true,
          "internalType": "address",
          "name": "newOwner",
          "type": "address"
        }
      ],
      "name": "OwnershipTransferred",
      "type": "event"
    },
    {
      "anonymous": false,
      "inputs": [
        {
          "indexed": false,
          "internalType": "uint256",
          "name": "poolId",
          "type": "uint256"
        },
        {
          "indexed": false,
          "internalType": "address",
          "name": "token",
          "type": "address"
        },
        {
          "indexed": false,
          "internalType": "uint256",
          "name": "amount",
          "type": "uint256"
        }
      ],
      "name": "TokensStaked",
      "type": "event"
    },
    {
      "anonymous": false,
      "inputs": [
        {
          "indexed": false,
          "internalType": "uint256",
          "name": "poolId",
          "type": "uint256"
        },
        {
          "indexed": false,
          "internalType": "address",
          "name": "buyer",
          "type": "address"
        },
        {
          "indexed": false,
          "internalType": "uint256",
          "name": "amount",
          "type": "uint256"
        },
        {
          "indexed": false,
          "internalType": "uint256",
          "name": "period",
          "type": "uint256"
        },
        {
          "indexed": false,
          "internalType": "uint256",
          "name": "tamount",
          "type": "uint256"
        }
      ],
      "name": "progressOfStaking",
      "type": "event"
    },
    {
      "anonymous": false,
      "inputs": [
        {
          "indexed": false,
          "internalType": "uint256",
          "name": "poolId",
          "type": "uint256"
        },
        {
          "indexed": false,
          "internalType": "uint256",
          "name": "stakper",
          "type": "uint256"
        },
        {
          "indexed": false,
          "internalType": "uint256",
          "name": "amount",
          "type": "uint256"
        },
        {
          "indexed": false,
          "internalType": "uint256",
          "name": "stak",
          "type": "uint256"
        },
        {
          "indexed": false,
          "internalType": "uint256",
          "name": "tamount",
          "type": "uint256"
        }
      ],
      "name": "registerpool",
      "type": "event"
    },
    {
      "inputs": [],
      "name": "Amount",
      "outputs": [
        {
          "internalType": "uint256",
          "name": "",
          "type": "uint256"
        }
      ],
      "stateMutability": "view",
      "type": "function"
    },
    {
      "inputs": [
        {
          "internalType": "uint256",
          "name": "poolId",
          "type": "uint256"
        }
      ],
      "name": "applyForStaking",
      "outputs": [],
      "stateMutability": "nonpayable",
      "type": "function"
    },
    {
      "inputs": [],
      "name": "beneficiary",
      "outputs": [
        {
          "internalType": "address",
          "name": "",
          "type": "address"
        }
      ],
      "stateMutability": "view",
      "type": "function"
    },
    {
      "inputs": [
        {
          "internalType": "uint256",
          "name": "poolId",
          "type": "uint256"
        },
        {
          "internalType": "address",
          "name": "claimaddress",
          "type": "address"
        }
      ],
      "name": "claimAmount",
      "outputs": [],
      "stateMutability": "nonpayable",
      "type": "function"
    },
    {
      "inputs": [
        {
          "internalType": "address",
          "name": "token",
          "type": "address"
        }
      ],
      "name": "claimTokens",
      "outputs": [
        {
          "internalType": "uint256",
          "name": "",
          "type": "uint256"
        }
      ],
      "stateMutability": "view",
      "type": "function"
    },
    {
      "inputs": [
        {
          "internalType": "address",
          "name": "",
          "type": "address"
        }
      ],
      "name": "claimable",
      "outputs": [
        {
          "internalType": "uint256",
          "name": "",
          "type": "uint256"
        }
      ],
      "stateMutability": "view",
      "type": "function"
    },
    {
      "inputs": [],
      "name": "createdPoolId",
      "outputs": [
        {
          "internalType": "uint256",
          "name": "",
          "type": "uint256"
        }
      ],
      "stateMutability": "view",
      "type": "function"
    },
    {
      "inputs": [],
      "name": "firstPercent",
      "outputs": [
        {
          "internalType": "uint256",
          "name": "",
          "type": "uint256"
        }
      ],
      "stateMutability": "view",
      "type": "function"
    },
    {
      "inputs": [],
      "name": "fourthPercent",
      "outputs": [
        {
          "internalType": "uint256",
          "name": "",
          "type": "uint256"
        }
      ],
      "stateMutability": "view",
      "type": "function"
    },
    {
      "inputs": [],
      "name": "getInfo",
      "outputs": [
        {
          "internalType": "uint256",
          "name": "",
          "type": "uint256"
        },
        {
          "internalType": "uint256",
          "name": "",
          "type": "uint256"
        },
        {
          "internalType": "uint256",
          "name": "",
          "type": "uint256"
        },
        {
          "internalType": "uint256",
          "name": "",
          "type": "uint256"
        },
        {
          "internalType": "uint256",
          "name": "",
          "type": "uint256"
        },
        {
          "internalType": "uint256",
          "name": "",
          "type": "uint256"
        },
        {
          "internalType": "address",
          "name": "",
          "type": "address"
        }
      ],
      "stateMutability": "view",
      "type": "function"
    },
    {
      "inputs": [],
      "name": "getPoolId",
      "outputs": [
        {
          "internalType": "uint256",
          "name": "",
          "type": "uint256"
        }
      ],
      "stateMutability": "view",
      "type": "function"
    },
    {
      "inputs": [],
      "name": "ideaToken",
      "outputs": [
        {
          "internalType": "address",
          "name": "",
          "type": "address"
        }
      ],
      "stateMutability": "view",
      "type": "function"
    },
    {
      "inputs": [
        {
          "internalType": "uint256",
          "name": "_minAmount",
          "type": "uint256"
        },
        {
          "internalType": "uint256",
          "name": "_maxAmount",
          "type": "uint256"
        },
        {
          "internalType": "address",
          "name": "_ideaToken",
          "type": "address"
        },
        {
          "internalType": "uint256",
          "name": "_firstPercent",
          "type": "uint256"
        },
        {
          "internalType": "uint256",
          "name": "_secondPercent",
          "type": "uint256"
        },
        {
          "internalType": "uint256",
          "name": "_thirdPercent",
          "type": "uint256"
        },
        {
          "internalType": "uint256",
          "name": "_fourthPercent",
          "type": "uint256"
        }
      ],
      "name": "initialize",
      "outputs": [],
      "stateMutability": "nonpayable",
      "type": "function"
    },
    {
      "inputs": [
        {
          "internalType": "uint256",
          "name": "",
          "type": "uint256"
        }
      ],
      "name": "isCreated",
      "outputs": [
        {
          "internalType": "bool",
          "name": "",
          "type": "bool"
        }
      ],
      "stateMutability": "view",
      "type": "function"
    },
    {
      "inputs": [
        {
          "internalType": "address",
          "name": "",
          "type": "address"
        }
      ],
      "name": "isPool",
      "outputs": [
        {
          "internalType": "bool",
          "name": "",
          "type": "bool"
        }
      ],
      "stateMutability": "view",
      "type": "function"
    },
    {
      "inputs": [],
      "name": "maxAmount",
      "outputs": [
        {
          "internalType": "uint256",
          "name": "",
          "type": "uint256"
        }
      ],
      "stateMutability": "view",
      "type": "function"
    },
    {
      "inputs": [],
      "name": "minAmount",
      "outputs": [
        {
          "internalType": "uint256",
          "name": "",
          "type": "uint256"
        }
      ],
      "stateMutability": "view",
      "type": "function"
    },
    {
      "inputs": [],
      "name": "owner",
      "outputs": [
        {
          "internalType": "address",
          "name": "",
          "type": "address"
        }
      ],
      "stateMutability": "view",
      "type": "function"
    },
    {
      "inputs": [
        {
          "internalType": "uint256",
          "name": "",
          "type": "uint256"
        }
      ],
      "name": "poolInfos",
      "outputs": [
        {
          "internalType": "uint256",
          "name": "stakingPeriod",
          "type": "uint256"
        },
        {
          "internalType": "uint256",
          "name": "weiAmount",
          "type": "uint256"
        },
        {
          "internalType": "uint256",
          "name": "staking",
          "type": "uint256"
        },
        {
          "internalType": "uint256",
          "name": "totamount",
          "type": "uint256"
        }
      ],
      "stateMutability": "view",
      "type": "function"
    },
    {
      "inputs": [
        {
          "internalType": "uint256",
          "name": "",
          "type": "uint256"
        }
      ],
      "name": "pools",
      "outputs": [
        {
          "internalType": "address",
          "name": "",
          "type": "address"
        }
      ],
      "stateMutability": "view",
      "type": "function"
    },
    {
      "inputs": [],
      "name": "poolsCount",
      "outputs": [
        {
          "internalType": "uint256",
          "name": "",
          "type": "uint256"
        }
      ],
      "stateMutability": "view",
      "type": "function"
    },
    {
      "inputs": [
        {
          "internalType": "uint256",
          "name": "_stakingPeriod",
          "type": "uint256"
        },
        {
          "internalType": "uint256",
          "name": "_weiAmount",
          "type": "uint256"
        },
        {
          "internalType": "uint256",
          "name": "_staking",
          "type": "uint256"
        }
      ],
      "name": "register",
      "outputs": [],
      "stateMutability": "nonpayable",
      "type": "function"
    },
    {
      "inputs": [],
      "name": "renounceOwnership",
      "outputs": [],
      "stateMutability": "nonpayable",
      "type": "function"
    },
    {
      "inputs": [],
      "name": "secondPercent",
      "outputs": [
        {
          "internalType": "uint256",
          "name": "",
          "type": "uint256"
        }
      ],
      "stateMutability": "view",
      "type": "function"
    },
    {
      "inputs": [],
      "name": "staking",
      "outputs": [
        {
          "internalType": "uint256",
          "name": "",
          "type": "uint256"
        }
      ],
      "stateMutability": "view",
      "type": "function"
    },
    {
      "inputs": [
        {
          "internalType": "uint256",
          "name": "poolId",
          "type": "uint256"
        },
        {
          "internalType": "address",
          "name": "claimaddress",
          "type": "address"
        }
      ],
      "name": "stakingClaim",
      "outputs": [],
      "stateMutability": "nonpayable",
      "type": "function"
    },
    {
      "inputs": [],
      "name": "stakingPeriod",
      "outputs": [
        {
          "internalType": "uint256",
          "name": "",
          "type": "uint256"
        }
      ],
      "stateMutability": "view",
      "type": "function"
    },
    {
      "inputs": [],
      "name": "startTime",
      "outputs": [
        {
          "internalType": "uint256",
          "name": "",
          "type": "uint256"
        }
      ],
      "stateMutability": "view",
      "type": "function"
    },
    {
      "inputs": [],
      "name": "testtoken",
      "outputs": [
        {
          "internalType": "address",
          "name": "",
          "type": "address"
        }
      ],
      "stateMutability": "view",
      "type": "function"
    },
    {
      "inputs": [],
      "name": "thirdPercent",
      "outputs": [
        {
          "internalType": "uint256",
          "name": "",
          "type": "uint256"
        }
      ],
      "stateMutability": "view",
      "type": "function"
    },
    {
      "inputs": [],
      "name": "totalamount",
      "outputs": [
        {
          "internalType": "uint256",
          "name": "",
          "type": "uint256"
        }
      ],
      "stateMutability": "view",
      "type": "function"
    },
    {
      "inputs": [],
      "name": "totamount",
      "outputs": [
        {
          "internalType": "uint256",
          "name": "",
          "type": "uint256"
        }
      ],
      "stateMutability": "view",
      "type": "function"
    },
    {
      "inputs": [
        {
          "internalType": "address",
          "name": "newOwner",
          "type": "address"
        }
      ],
      "name": "transferOwnership",
      "outputs": [],
      "stateMutability": "nonpayable",
      "type": "function"
    },
    {
      "inputs": [
        {
          "internalType": "uint256",
          "name": "_maxAmount",
          "type": "uint256"
        }
      ],
      "name": "updateMaxAmount",
      "outputs": [],
      "stateMutability": "nonpayable",
      "type": "function"
    },
    {
      "inputs": [
        {
          "internalType": "uint256",
          "name": "_minAmount",
          "type": "uint256"
        }
      ],
      "name": "updateMinAmount",
      "outputs": [],
      "stateMutability": "nonpayable",
      "type": "function"
    },
    {
      "inputs": [
        {
          "internalType": "address",
          "name": "_ideaToken",
          "type": "address"
        }
      ],
      "name": "updateToken",
      "outputs": [],
      "stateMutability": "nonpayable",
      "type": "function"
    },
    {
      "inputs": [],
      "name": "weiAmount",
      "outputs": [
        {
          "internalType": "uint256",
          "name": "",
          "type": "uint256"
        }
      ],
      "stateMutability": "view",
      "type": "function"
    },
    {
      "inputs": [
        {
          "internalType": "address",
          "name": "to",
          "type": "address"
        }
      ],
      "name": "withdrawAllToken",
      "outputs": [],
      "stateMutability": "nonpayable",
      "type": "function"
    }
  ],
  "bytecode": "0x608060405234801561001057600080fd5b50600160655561205a806100256000396000f3fe608060405234801561001057600080fd5b50600436106102925760003560e01c806378e9792511610160578063ac4afa38116100d8578063df8de3e71161008c578063f2fde38b11610071578063f2fde38b14610578578063faa5c5641461058b578063ff897dbd1461059e57600080fd5b8063df8de3e714610546578063ecba63881461056f57600080fd5b8063bbc9e3fd116100bd578063bbc9e3fd14610517578063c03d5b471461052a578063d42388141461053357600080fd5b8063ac4afa38146104db578063ae4dd0fc1461050457600080fd5b80638da5cb5b1161012f5780639ca0cf2a116101145780639ca0cf2a146104c0578063a37ebe36146104c9578063aaf69a5d146104d257600080fd5b80638da5cb5b146104a65780639b2cb5d8146104b757600080fd5b806378e97925146104785780637ad3def2146104815780637b3bda25146104945780638c788de01461049d57600080fd5b80633b6913a41161020e5780635a9b0b89116101c25780635f48f393116101a75780635f48f39314610434578063689d84e41461043d578063715018a61461047057600080fd5b80635a9b0b89146103be5780635b16ebb71461041157600080fd5b8063402914f5116101f3578063402914f51461038c5780634cf088d9146103ac5780635a66bc6a146103b557600080fd5b80633b6913a4146103705780633fa69faa1461037957600080fd5b806312fc349f1161026557806329a8791a1161024a57806329a8791a1461032257806338af3eed1461035557806338fff2d01461036857600080fd5b806312fc349f146102fc57806320ccdcdc1461030f57600080fd5b8063012cf36b146102975780630161fe32146102b35780630d10e842146102de578063106b5da1146102e7575b600080fd5b6102a060725481565b6040519081526020015b60405180910390f35b6071546102c6906001600160a01b031681565b6040516001600160a01b0390911681526020016102aa565b6102a0606c5481565b6102fa6102f5366004611e46565b6105b1565b005b6102fa61030a366004611ea1565b610615565b6102fa61031d366004611e76565b61071d565b610345610330366004611e46565b607d6020526000908152604090205460ff1681565b60405190151581526020016102aa565b6069546102c6906001600160a01b031681565b6068546102a0565b6102a060775481565b6070546102c6906001600160a01b031681565b6102a061039a366004611e0c565b60796020526000908152604090205481565b6102a0606e5481565b6102a0606d5481565b606a54606f54607554607654607754607854607154604080519788526020880196909652948601939093526060850191909152608084015260a08301526001600160a01b031660c082015260e0016102aa565b61034561041f366004611e0c565b607c6020526000908152604090205460ff1681565b6102a0606f5481565b61045061044b366004611e46565b610a9f565b6040805194855260208501939093529183015260608201526080016102aa565b6102fa610ad9565b6102a060735481565b6102fa61048f366004611e0c565b610b3f565b6102a060785481565b6102a060675481565b6033546001600160a01b03166102c6565b6102a0606a5481565b6102a060745481565b6102a060765481565b6102a060755481565b6102c66104e9366004611e46565b607b602052600090815260409020546001600160a01b031681565b6102fa610512366004611e0c565b610bc8565b6102fa610525366004611e46565b610e02565b6102a0606b5481565b6102fa610541366004611e76565b611327565b6102a0610554366004611e0c565b6001600160a01b031660009081526079602052604090205490565b6102a060665481565b6102fa610586366004611e0c565b61145c565b6102fa610599366004611efa565b61153b565b6102fa6105ac366004611e46565b611815565b6033546001600160a01b031633146106105760405162461bcd60e51b815260206004820181905260248201527f4f776e61626c653a2063616c6c6572206973206e6f7420746865206f776e657260448201526064015b60405180910390fd5b606f55565b600054610100900460ff168061062e575060005460ff16155b6106915760405162461bcd60e51b815260206004820152602e60248201527f496e697469616c697a61626c653a20636f6e747261637420697320616c72656160448201526d191e481a5b9a5d1a585b1a5e995960921b6064820152608401610607565b600054610100900460ff161580156106b3576000805461ffff19166101011790555b6106bb611874565b606a889055606f87905560758590556076849055607783905560788290556071805473ffffffffffffffffffffffffffffffffffffffff19166001600160a01b0388161790558015610713576000805461ff00191690555b5050505050505050565b60685460009083106107715760405162461bcd60e51b815260206004820152600f60248201527f496e76616c6964205374616b65496400000000000000000000000000000000006044820152606401610607565b60006068848154811061079457634e487b7160e01b600052603260045260246000fd5b906000526020600020906004020190508060000154421180156107b75750805415155b6108035760405162461bcd60e51b815260206004820181905260248201527f5374616b696e6720436c61696d204973204e6f7420416c6c6f776564205965746044820152606401610607565b60008160030154116108575760405162461bcd60e51b815260206004820152601060248201527f4e6f7468696e6720746f20636c61696d000000000000000000000000000000006044820152606401610607565b6001810154600282015460649061086e9083611fac565b6108789190611f8c565b9250600083116108ca5760405162461bcd60e51b815260206004820181905260248201527f5354616b696e6720546f6b656e3a206e6f20746f6b656e7320617265206475656044820152606401610607565b60006108d68483611f74565b6071546040516370a0823160e01b81523060048201529192506001600160a01b0316906370a082319060240160206040518083038186803b15801561091a57600080fd5b505afa15801561092e573d6000803e3d6000fd5b505050506040513d601f19601f820116820180604052508101906109529190611e5e565b8111156109925760405162461bcd60e51b815260206004820152600e60248201526d6f7574206f662062616c616e636560901b6044820152606401610607565b60715460405163095ea7b360e01b8152306004820152602481018390526001600160a01b039091169063095ea7b390604401602060405180830381600087803b1580156109de57600080fd5b505af11580156109f2573d6000803e3d6000fd5b505050506040513d601f19601f82011682018060405250810190610a169190611e26565b50607154610a2f906001600160a01b0316308784611936565b81836003016000828254610a439190611fcb565b9091555050606654607154604080519283526001600160a01b03909116602083015281018290527f3c2905e5cda90fbc3e1296ec4bc49130e39b6203bb1d13b4a855ced4d920e16f9060600160405180910390a1505050505050565b60688181548110610aaf57600080fd5b60009182526020909120600490910201805460018201546002830154600390930154919350919084565b6033546001600160a01b03163314610b335760405162461bcd60e51b815260206004820181905260248201527f4f776e61626c653a2063616c6c6572206973206e6f7420746865206f776e65726044820152606401610607565b610b3d60006119be565b565b6033546001600160a01b03163314610b995760405162461bcd60e51b815260206004820181905260248201527f4f776e61626c653a2063616c6c6572206973206e6f7420746865206f776e65726044820152606401610607565b6071805473ffffffffffffffffffffffffffffffffffffffff19166001600160a01b0392909216919091179055565b6033546001600160a01b03163314610c225760405162461bcd60e51b815260206004820181905260248201527f4f776e61626c653a2063616c6c6572206973206e6f7420746865206f776e65726044820152606401610607565b6071546040516370a0823160e01b81523060048201526000916001600160a01b0316906370a082319060240160206040518083038186803b158015610c6657600080fd5b505afa158015610c7a573d6000803e3d6000fd5b505050506040513d601f19601f82011682018060405250810190610c9e9190611e5e565b11610cdc5760405162461bcd60e51b815260206004820152600e60248201526d6f7574206f662062616c616e636560901b6044820152606401610607565b6071546040516370a0823160e01b81523060048201526001600160a01b03909116906370a082319060240160206040518083038186803b158015610d1f57600080fd5b505afa158015610d33573d6000803e3d6000fd5b505050506040513d601f19601f82011682018060405250810190610d579190611e5e565b607481905560715460405163095ea7b360e01b815230600482015260248101929092526001600160a01b03169063095ea7b390604401602060405180830381600087803b158015610da757600080fd5b505af1158015610dbb573d6000803e3d6000fd5b505050506040513d601f19601f82011682018060405250810190610ddf9190611e26565b50607454607154610dff916001600160a01b039091169030908490611936565b50565b6068548110610e535760405162461bcd60e51b815260206004820152600f60248201527f496e76616c6964207374616b65496400000000000000000000000000000000006044820152606401610607565b6000818152607d602052604090205460ff1615610eb25760405162461bcd60e51b815260206004820181905260248201527f416c7265616479206170706c69656420666f722074686973207374616b6569646044820152606401610607565b6000607354610e10610ec49190611f74565b90508042108015610ed457508015155b610f465760405162461bcd60e51b815260206004820152603160248201527f74696d6520666f72206170706c79696e67207374616b696e67206973206f766560448201527f722c20726567697374657220616761696e0000000000000000000000000000006064820152608401610607565b600060688381548110610f6957634e487b7160e01b600052603260045260246000fd5b600091825260209091206070805473ffffffffffffffffffffffffffffffffffffffff1916301790556071546040516370a0823160e01b81523360048083019190915290930290910192506001600160a01b0316906370a082319060240160206040518083038186803b158015610fdf57600080fd5b505afa158015610ff3573d6000803e3d6000fd5b505050506040513d601f19601f820116820180604052508101906110179190611e5e565b8160010154111561105b5760405162461bcd60e51b815260206004820152600e60248201526d6f7574206f662062616c616e636560901b6044820152606401610607565b606a54816001015410156110b15760405162461bcd60e51b815260206004820152600e60248201527f616d6f756e7420746f6f206c6f770000000000000000000000000000000000006044820152606401610607565b606f54816001015482600301546110c89190611f74565b111561113c5760405162461bcd60e51b815260206004820152602b60248201527f796f752063616e206e6f74206170706c7920666f72206d6f7265207468656e2060448201527f7468697320616d6f756e740000000000000000000000000000000000000000006064820152608401610607565b607154600182015460405163095ea7b360e01b815230600482015260248101919091526001600160a01b039091169063095ea7b390604401602060405180830381600087803b15801561118e57600080fd5b505af11580156111a2573d6000803e3d6000fd5b505050506040513d601f19601f820116820180604052508101906111c69190611e26565b506071546040517fdd62ed3e000000000000000000000000000000000000000000000000000000008152306004820181905260248201526001600160a01b039091169063dd62ed3e9060440160206040518083038186803b15801561122a57600080fd5b505afa15801561123e573d6000803e3d6000fd5b505050506040513d601f19601f820116820180604052508101906112629190611e5e565b506001810154607154611284916001600160a01b039091169033903090611936565b806001015481600301546112989190611f74565b60038201556000838152607d60205260409020805460ff191660019081179091556067546112c591611f74565b60675560665460018201548254600384015460408051948552336020860152840192909252606083015260808201527fb492f2ced82f6a57b8835f78a63eb42dcd6ec71d94de6bcb5f8383d1f978d25a9060a0015b60405180910390a1505050565b60006068838154811061134a57634e487b7160e01b600052603260045260246000fd5b9060005260206000209060040201905060008160030154116113ae5760405162461bcd60e51b815260206004820152601060248201527f6e6f7468696e6720746f20636c61696d000000000000000000000000000000006044820152606401610607565b600381018054600090915560715460405163095ea7b360e01b8152306004820152602481018390526001600160a01b039091169063095ea7b390604401602060405180830381600087803b15801561140557600080fd5b505af1158015611419573d6000803e3d6000fd5b505050506040513d601f19601f8201168201806040525081019061143d9190611e26565b50607154611456906001600160a01b0316308584611936565b50505050565b6033546001600160a01b031633146114b65760405162461bcd60e51b815260206004820181905260248201527f4f776e61626c653a2063616c6c6572206973206e6f7420746865206f776e65726044820152606401610607565b6001600160a01b0381166115325760405162461bcd60e51b815260206004820152602660248201527f4f776e61626c653a206e6577206f776e657220697320746865207a65726f206160448201527f64647265737300000000000000000000000000000000000000000000000000006064820152608401610607565b610dff816119be565b606a548210156115b35760405162461bcd60e51b815260206004820152602a60248201527f776569616d6f756e742073686f756c6420626520677261746572207468656e2060448201527f6d696e416d6f756e7421000000000000000000000000000000000000000000006064820152608401610607565b606f5482111561162b5760405162461bcd60e51b815260206004820152602860248201527f776569616d6f756e742073686f756c64206265206c657373207468656e206d6160448201527f78416d6f756e74210000000000000000000000000000000000000000000000006064820152608401610607565b60755481148061163c575060765481145b80611648575060775481145b80611654575060785481145b6116c65760405162461bcd60e51b815260206004820152602860248201527f70657263656e7461676520646f65736e74206d6174636865732074686520746960448201527f6d65706572696f640000000000000000000000000000000000000000000000006064820152608401610607565b60685460665560006072556116dd4261012c611f74565b607355604080516080808201835285825260208083018681528385018681526072805460608088019182526068805460018101825560009190915297517fa2153420d844928b4421650203c77babc8b33d7f2e7b450e2966db0c2209775360049099029889015593517fa2153420d844928b4421650203c77babc8b33d7f2e7b450e2966db0c2209775488015591517fa2153420d844928b4421650203c77babc8b33d7f2e7b450e2966db0c2209775587015590517fa2153420d844928b4421650203c77babc8b33d7f2e7b450e2966db0c2209775690950194909455606b889055606c879055606e869055606654935485519485529184018890529383018690529282018490528101919091527f8b6e8222546b259edfecd1e921cc94e43eead52f7582c9b4a89f162199da19909060a00161131a565b6033546001600160a01b0316331461186f5760405162461bcd60e51b815260206004820181905260248201527f4f776e61626c653a2063616c6c6572206973206e6f7420746865206f776e65726044820152606401610607565b606a55565b600054610100900460ff168061188d575060005460ff16155b6118f05760405162461bcd60e51b815260206004820152602e60248201527f496e697469616c697a61626c653a20636f6e747261637420697320616c72656160448201526d191e481a5b9a5d1a585b1a5e995960921b6064820152608401610607565b600054610100900460ff16158015611912576000805461ffff19166101011790555b61191a611a1d565b611922611ace565b8015610dff576000805461ff001916905550565b604080516001600160a01b0385811660248301528416604482015260648082018490528251808303909101815260849091019091526020810180517bffffffffffffffffffffffffffffffffffffffffffffffffffffffff167f23b872dd00000000000000000000000000000000000000000000000000000000179052611456908590611b75565b603380546001600160a01b0383811673ffffffffffffffffffffffffffffffffffffffff19831681179093556040519116919082907f8be0079c531659141344cd1fd0a4f28419497f9722a3daafe3b4186f6b6457e090600090a35050565b600054610100900460ff1680611a36575060005460ff16155b611a995760405162461bcd60e51b815260206004820152602e60248201527f496e697469616c697a61626c653a20636f6e747261637420697320616c72656160448201526d191e481a5b9a5d1a585b1a5e995960921b6064820152608401610607565b600054610100900460ff16158015611922576000805461ffff19166101011790558015610dff576000805461ff001916905550565b600054610100900460ff1680611ae7575060005460ff16155b611b4a5760405162461bcd60e51b815260206004820152602e60248201527f496e697469616c697a61626c653a20636f6e747261637420697320616c72656160448201526d191e481a5b9a5d1a585b1a5e995960921b6064820152608401610607565b600054610100900460ff16158015611b6c576000805461ffff19166101011790555b611922336119be565b6000611bca826040518060400160405280602081526020017f5361666545524332303a206c6f772d6c6576656c2063616c6c206661696c6564815250856001600160a01b0316611c5f9092919063ffffffff16565b805190915015611c5a5780806020019051810190611be89190611e26565b611c5a5760405162461bcd60e51b815260206004820152602a60248201527f5361666545524332303a204552433230206f7065726174696f6e20646964206e60448201527f6f742073756363656564000000000000000000000000000000000000000000006064820152608401610607565b505050565b6060611c6e8484600085611c78565b90505b9392505050565b606082471015611cf05760405162461bcd60e51b815260206004820152602660248201527f416464726573733a20696e73756666696369656e742062616c616e636520666f60448201527f722063616c6c00000000000000000000000000000000000000000000000000006064820152608401610607565b843b611d3e5760405162461bcd60e51b815260206004820152601d60248201527f416464726573733a2063616c6c20746f206e6f6e2d636f6e74726163740000006044820152606401610607565b600080866001600160a01b03168587604051611d5a9190611f25565b60006040518083038185875af1925050503d8060008114611d97576040519150601f19603f3d011682016040523d82523d6000602084013e611d9c565b606091505b5091509150611dac828286611db7565b979650505050505050565b60608315611dc6575081611c71565b825115611dd65782518084602001fd5b8160405162461bcd60e51b81526004016106079190611f41565b80356001600160a01b0381168114611e0757600080fd5b919050565b600060208284031215611e1d578081fd5b611c7182611df0565b600060208284031215611e37578081fd5b81518015158114611c71578182fd5b600060208284031215611e57578081fd5b5035919050565b600060208284031215611e6f578081fd5b5051919050565b60008060408385031215611e88578081fd5b82359150611e9860208401611df0565b90509250929050565b600080600080600080600060e0888a031215611ebb578283fd5b8735965060208801359550611ed260408901611df0565b969995985095966060810135965060808101359560a0820135955060c0909101359350915050565b600080600060608486031215611f0e578283fd5b505081359360208301359350604090920135919050565b60008251611f37818460208701611fe2565b9190910192915050565b6020815260008251806020840152611f60816040850160208701611fe2565b601f01601f19169190910160400192915050565b60008219821115611f8757611f8761200e565b500190565b600082611fa757634e487b7160e01b81526012600452602481fd5b500490565b6000816000190483118215151615611fc657611fc661200e565b500290565b600082821015611fdd57611fdd61200e565b500390565b60005b83811015611ffd578181015183820152602001611fe5565b838111156114565750506000910152565b634e487b7160e01b600052601160045260246000fdfea2646970667358221220732d8957ab7f12e38748f44c087dca345abd23b8a0eaf611447c796bb97d976b64736f6c63430008040033",
  "linkReferences": {},
  "deployedLinkReferences": {}
}