{
  "_format": "hh-sol-artifact-1",
  "contractName": "Voting",
  "sourceName": "contracts/Voting.sol",
  "abi": [
    {
      "inputs": [],
      "stateMutability": "nonpayable",
      "type": "constructor"
    },
    {
      "anonymous": false,
      "inputs": [
        {
          "indexed": false,
          "internalType": "uint256",
          "name": "poolId",
          "type": "uint256"
        }
      ],
      "name": "addpools",
      "type": "event"
    },
    {
      "anonymous": false,
      "inputs": [
        {
          "indexed": false,
          "internalType": "uint256",
          "name": "poolId",
          "type": "uint256"
        },
        {
          "indexed": false,
          "internalType": "address",
          "name": "voter",
          "type": "address"
        }
      ],
      "name": "votersid",
      "type": "event"
    },
    {
      "anonymous": false,
      "inputs": [
        {
          "indexed": false,
          "internalType": "uint256",
          "name": "_winnerId",
          "type": "uint256"
        },
        {
          "indexed": false,
          "internalType": "address[]",
          "name": "candidateVoterAddress",
          "type": "address[]"
        }
      ],
      "name": "winner",
      "type": "event"
    },
    {
      "inputs": [],
      "name": "_start",
      "outputs": [
        {
          "internalType": "bool",
          "name": "",
          "type": "bool"
        }
      ],
      "stateMutability": "view",
      "type": "function"
    },
    {
      "inputs": [
        {
          "internalType": "string",
          "name": "_name",
          "type": "string"
        },
        {
          "internalType": "string",
          "name": "_category",
          "type": "string"
        },
        {
          "internalType": "string",
          "name": "_uri",
          "type": "string"
        },
        {
          "internalType": "string",
          "name": "_description",
          "type": "string"
        }
      ],
      "name": "addPools",
      "outputs": [],
      "stateMutability": "nonpayable",
      "type": "function"
    },
    {
      "inputs": [],
      "name": "airdrop",
      "outputs": [
        {
          "internalType": "uint256",
          "name": "",
          "type": "uint256"
        }
      ],
      "stateMutability": "view",
      "type": "function"
    },
    {
      "inputs": [
        {
          "internalType": "uint256",
          "name": "",
          "type": "uint256"
        },
        {
          "internalType": "uint256",
          "name": "",
          "type": "uint256"
        }
      ],
      "name": "candidateVoters",
      "outputs": [
        {
          "internalType": "address",
          "name": "",
          "type": "address"
        }
      ],
      "stateMutability": "view",
      "type": "function"
    },
    {
      "inputs": [
        {
          "internalType": "uint256",
          "name": "",
          "type": "uint256"
        }
      ],
      "name": "candidateaddress",
      "outputs": [
        {
          "internalType": "address",
          "name": "",
          "type": "address"
        }
      ],
      "stateMutability": "view",
      "type": "function"
    },
    {
      "inputs": [],
      "name": "deletePool",
      "outputs": [],
      "stateMutability": "nonpayable",
      "type": "function"
    },
    {
      "inputs": [],
      "name": "endTime",
      "outputs": [
        {
          "internalType": "uint256",
          "name": "",
          "type": "uint256"
        }
      ],
      "stateMutability": "view",
      "type": "function"
    },
    {
      "inputs": [],
      "name": "endVoute",
      "outputs": [],
      "stateMutability": "nonpayable",
      "type": "function"
    },
    {
      "inputs": [],
      "name": "getAllCandidates",
      "outputs": [
        {
          "components": [
            {
              "internalType": "uint256",
              "name": "id",
              "type": "uint256"
            },
            {
              "internalType": "string",
              "name": "name",
              "type": "string"
            },
            {
              "internalType": "string",
              "name": "category",
              "type": "string"
            },
            {
              "internalType": "address",
              "name": "cadidate_address",
              "type": "address"
            },
            {
              "internalType": "string",
              "name": "uri",
              "type": "string"
            },
            {
              "internalType": "string",
              "name": "description",
              "type": "string"
            },
            {
              "internalType": "uint256",
              "name": "totalVotes",
              "type": "uint256"
            },
            {
              "internalType": "address[]",
              "name": "alreadyVotedAddress",
              "type": "address[]"
            },
            {
              "internalType": "uint256",
              "name": "airdrop",
              "type": "uint256"
            }
          ],
          "internalType": "struct Voting.Pools[]",
          "name": "",
          "type": "tuple[]"
        }
      ],
      "stateMutability": "view",
      "type": "function"
    },
    {
      "inputs": [],
      "name": "getCounts",
      "outputs": [
        {
          "internalType": "uint256",
          "name": "",
          "type": "uint256"
        }
      ],
      "stateMutability": "view",
      "type": "function"
    },
    {
      "inputs": [],
      "name": "getEndTime",
      "outputs": [
        {
          "internalType": "uint256",
          "name": "",
          "type": "uint256"
        }
      ],
      "stateMutability": "view",
      "type": "function"
    },
    {
      "inputs": [],
      "name": "getMinimumBalance",
      "outputs": [
        {
          "internalType": "uint256",
          "name": "",
          "type": "uint256"
        }
      ],
      "stateMutability": "view",
      "type": "function"
    },
    {
      "inputs": [],
      "name": "getResult",
      "outputs": [
        {
          "internalType": "uint256",
          "name": "",
          "type": "uint256"
        }
      ],
      "stateMutability": "nonpayable",
      "type": "function"
    },
    {
      "inputs": [],
      "name": "getStartTime",
      "outputs": [
        {
          "internalType": "uint256",
          "name": "",
          "type": "uint256"
        }
      ],
      "stateMutability": "view",
      "type": "function"
    },
    {
      "inputs": [
        {
          "internalType": "uint256",
          "name": "voterid",
          "type": "uint256"
        }
      ],
      "name": "getVoteCount",
      "outputs": [
        {
          "internalType": "uint256",
          "name": "",
          "type": "uint256"
        }
      ],
      "stateMutability": "view",
      "type": "function"
    },
    {
      "inputs": [],
      "name": "getVoters",
      "outputs": [
        {
          "internalType": "address[]",
          "name": "",
          "type": "address[]"
        }
      ],
      "stateMutability": "view",
      "type": "function"
    },
    {
      "inputs": [],
      "name": "minimun",
      "outputs": [
        {
          "internalType": "uint256",
          "name": "",
          "type": "uint256"
        }
      ],
      "stateMutability": "view",
      "type": "function"
    },
    {
      "inputs": [
        {
          "internalType": "uint256",
          "name": "",
          "type": "uint256"
        }
      ],
      "name": "pools",
      "outputs": [
        {
          "internalType": "uint256",
          "name": "id",
          "type": "uint256"
        },
        {
          "internalType": "string",
          "name": "name",
          "type": "string"
        },
        {
          "internalType": "string",
          "name": "category",
          "type": "string"
        },
        {
          "internalType": "address",
          "name": "cadidate_address",
          "type": "address"
        },
        {
          "internalType": "string",
          "name": "uri",
          "type": "string"
        },
        {
          "internalType": "string",
          "name": "description",
          "type": "string"
        },
        {
          "internalType": "uint256",
          "name": "totalVotes",
          "type": "uint256"
        },
        {
          "internalType": "uint256",
          "name": "airdrop",
          "type": "uint256"
        }
      ],
      "stateMutability": "view",
      "type": "function"
    },
    {
      "inputs": [
        {
          "internalType": "uint256",
          "name": "",
          "type": "uint256"
        }
      ],
      "name": "poolsCollec",
      "outputs": [
        {
          "internalType": "uint256",
          "name": "id",
          "type": "uint256"
        },
        {
          "internalType": "string",
          "name": "name",
          "type": "string"
        },
        {
          "internalType": "string",
          "name": "category",
          "type": "string"
        },
        {
          "internalType": "address",
          "name": "cadidate_address",
          "type": "address"
        },
        {
          "internalType": "string",
          "name": "uri",
          "type": "string"
        },
        {
          "internalType": "string",
          "name": "description",
          "type": "string"
        },
        {
          "internalType": "uint256",
          "name": "totalVotes",
          "type": "uint256"
        },
        {
          "internalType": "uint256",
          "name": "airdrop",
          "type": "uint256"
        }
      ],
      "stateMutability": "view",
      "type": "function"
    },
    {
      "inputs": [],
      "name": "reset",
      "outputs": [],
      "stateMutability": "nonpayable",
      "type": "function"
    },
    {
      "inputs": [
        {
          "internalType": "uint256",
          "name": "_airdrop",
          "type": "uint256"
        }
      ],
      "name": "setAirdrop",
      "outputs": [],
      "stateMutability": "nonpayable",
      "type": "function"
    },
    {
      "inputs": [
        {
          "internalType": "uint256",
          "name": "minbalance",
          "type": "uint256"
        }
      ],
      "name": "setMinimumBalance",
      "outputs": [],
      "stateMutability": "nonpayable",
      "type": "function"
    },
    {
      "inputs": [
        {
          "internalType": "address",
          "name": "token_address",
          "type": "address"
        }
      ],
      "name": "setTokenAddress",
      "outputs": [],
      "stateMutability": "nonpayable",
      "type": "function"
    },
    {
      "inputs": [],
      "name": "startTime",
      "outputs": [
        {
          "internalType": "uint256",
          "name": "",
          "type": "uint256"
        }
      ],
      "stateMutability": "view",
      "type": "function"
    },
    {
      "inputs": [
        {
          "internalType": "uint256",
          "name": "_time",
          "type": "uint256"
        }
      ],
      "name": "startVoting",
      "outputs": [],
      "stateMutability": "nonpayable",
      "type": "function"
    },
    {
      "inputs": [],
      "name": "token",
      "outputs": [
        {
          "internalType": "contract IERC20",
          "name": "",
          "type": "address"
        }
      ],
      "stateMutability": "view",
      "type": "function"
    },
    {
      "inputs": [
        {
          "internalType": "address",
          "name": "newOwner",
          "type": "address"
        }
      ],
      "name": "transferOwnership",
      "outputs": [],
      "stateMutability": "nonpayable",
      "type": "function"
    },
    {
      "inputs": [
        {
          "internalType": "uint256",
          "name": "_pool_Id",
          "type": "uint256"
        }
      ],
      "name": "vote",
      "outputs": [],
      "stateMutability": "nonpayable",
      "type": "function"
    },
    {
      "inputs": [
        {
          "internalType": "uint256",
          "name": "",
          "type": "uint256"
        }
      ],
      "name": "votes",
      "outputs": [
        {
          "internalType": "uint256",
          "name": "",
          "type": "uint256"
        }
      ],
      "stateMutability": "view",
      "type": "function"
    },
    {
      "inputs": [],
      "name": "winnerid",
      "outputs": [
        {
          "internalType": "uint256",
          "name": "",
          "type": "uint256"
        }
      ],
      "stateMutability": "view",
      "type": "function"
    }
  ],
  "bytecode": "0x60806040526000805561c3506002556101f460075534801561002057600080fd5b50600680546001600160a01b03191633179055612420806100426000396000f3fe608060405234801561001057600080fd5b50600436106101da5760003560e01c80638f255bd711610104578063c828371e116100a2578063d826f88f11610071578063d826f88f146103cd578063de292789146103d5578063f2fde38b146103dd578063fc0c546a146103f057600080fd5b8063c828371e1461038a578063c9e2acfe14610392578063cdd72253146103a5578063d432dff0146103ba57600080fd5b8063ac4afa38116100de578063ac4afa3814610345578063b069b60314610358578063b2c2f2e814610361578063c6960d4c1461038157600080fd5b80638f255bd7146102eb578063a3c2772b14610316578063a53738991461033d57600080fd5b8063439f5ac21161017c578063723098391161014b57806372309839146102bf57806376d6f199146102c757806378e97925146102da5780638bfbbcbe146102e357600080fd5b8063439f5ac21461026b57806353ef678114610273578063582baca9146102975780635df813301461029f57600080fd5b80633197cbb6116101b85780633197cbb6146102255780633446e4b41461023c5780633884d6351461024f5780633d2f5bda1461025857600080fd5b80630121b93f146101df57806326a4e8d2146101f45780632e6997fe14610207575b600080fd5b6101f26101ed366004611cce565b610403565b005b6101f2610202366004611ce7565b6109ff565b61020f610ae8565b60405161021c9190611da1565b60405180910390f35b61022e60035481565b60405190815260200161021c565b6101f261024a366004611cce565b610ed5565b61022e60025481565b6101f2610266366004611cce565b610f4b565b60035461022e565b60065461028790600160a01b900460ff1681565b604051901515815260200161021c565b60075461022e565b61022e6102ad366004611cce565b600a6020526000908152604090205481565b6101f2610ff9565b6101f26102d5366004611cce565b611070565b61022e60015481565b6101f26110e6565b6102fe6102f9366004611eb7565b611169565b6040516001600160a01b03909116815260200161021c565b610329610324366004611cce565b6111a1565b60405161021c989796959493929190611ed9565b600c5461022e565b610329610353366004611cce565b611424565b61022e60075481565b61022e61036f366004611cce565b6000908152600a602052604090205490565b61022e60055481565b60015461022e565b6102fe6103a0366004611cce565b611446565b6103ad611470565b60405161021c9190611f56565b6101f26103c8366004612046565b6114dd565b6101f2611786565b61022e6118a2565b6101f26103eb366004611ce7565b611a86565b6004546102fe906001600160a01b031681565b600754600480546040517f70a0823100000000000000000000000000000000000000000000000000000000815233928101929092526001600160a01b0316906370a0823190602401602060405180830381865afa158015610468573d6000803e3d6000fd5b505050506040513d601f19601f8201168201806040525081019061048c91906120f3565b10156104df5760405162461bcd60e51b815260206004820152601760248201527f4d696e696d756d2062616c616e6365206973206c6f772e00000000000000000060448201526064015b60405180910390fd5b6003544211156105315760405162461bcd60e51b815260206004820152601460248201527f566f74696e672054696d6520657870697265642e00000000000000000000000060448201526064016104d6565b600081815260096020908152604080832081516101208101909252805482526001810180548594840191906105659061210c565b80601f01602080910402602001604051908101604052809291908181526020018280546105919061210c565b80156105de5780601f106105b3576101008083540402835291602001916105de565b820191906000526020600020905b8154815290600101906020018083116105c157829003601f168201915b505050505081526020016002820180546105f79061210c565b80601f01602080910402602001604051908101604052809291908181526020018280546106239061210c565b80156106705780601f1061064557610100808354040283529160200191610670565b820191906000526020600020905b81548152906001019060200180831161065357829003601f168201915b505050918352505060038201546001600160a01b031660208201526004820180546040909201916106a09061210c565b80601f01602080910402602001604051908101604052809291908181526020018280546106cc9061210c565b80156107195780601f106106ee57610100808354040283529160200191610719565b820191906000526020600020905b8154815290600101906020018083116106fc57829003601f168201915b505050505081526020016005820180546107329061210c565b80601f016020809104026020016040519081016040528092919081815260200182805461075e9061210c565b80156107ab5780601f10610780576101008083540402835291602001916107ab565b820191906000526020600020905b81548152906001019060200180831161078e57829003601f168201915b50505050508152602001600682015481526020016007820180548060200260200160405190810160405280929190818152602001828054801561081757602002820191906000526020600020905b81546001600160a01b031681526001909101906020018083116107f9575b50505050508152602001600882015481525050905060005b8160e001515181101561088957336001600160a01b03168260e00151828151811061085c5761085c612146565b60200260200101516001600160a01b03160361087757600192505b8061088181612172565b91505061082f565b508115801561089e5750600a8160e001515111155b6109365760405162461bcd60e51b815260206004820152604d60248201527f4d617820313020766f746572732063616e20766f746520746f2074686973205060448201527f6f6f6c20616e642073616d6520766f7465722063616e277420766f7465206d6f60648201527f7265207468616e206f6e63652e00000000000000000000000000000000000000608482015260a4016104d6565b600083815260096020526040812060060180546001929061095890849061218b565b9091555050600083815260096020908152604080832054808452600a909252822080549192869261098a90849061218b565b90915550506000818152600b6020908152604080832080546001810182559084529282902090920180546001600160a01b031916339081179091558251878152918201527f0cd4e5f6d1d875aaf7269e12924ed5767459fbb3d4e4db6b0254b114c7a8c6c0910160405180910390a150505050565b6006546001600160a01b03163314610a705760405162461bcd60e51b815260206004820152602e60248201527f4f6e6c792074686520636f6e7472616374206f776e65722063616e2063616c6c60448201526d103a3434b990333ab731ba34b7b760911b60648201526084016104d6565b6001600160a01b038116610ac65760405162461bcd60e51b815260206004820152601560248201527f496e76616c696420746f6b656e2061646472657373000000000000000000000060448201526064016104d6565b600480546001600160a01b0319166001600160a01b0392909216919091179055565b600c5460609060008167ffffffffffffffff811115610b0957610b09611fa3565b604051908082528060200260200182016040528015610b9257816020015b610b7f60405180610120016040528060008152602001606081526020016060815260200160006001600160a01b0316815260200160608152602001606081526020016000815260200160608152602001600081525090565b815260200190600190039081610b275790505b50905060005b82811015610ece57600960008281526020019081526020016000206040518061012001604052908160008201548152602001600182018054610bd99061210c565b80601f0160208091040260200160405190810160405280929190818152602001828054610c059061210c565b8015610c525780601f10610c2757610100808354040283529160200191610c52565b820191906000526020600020905b815481529060010190602001808311610c3557829003601f168201915b50505050508152602001600282018054610c6b9061210c565b80601f0160208091040260200160405190810160405280929190818152602001828054610c979061210c565b8015610ce45780601f10610cb957610100808354040283529160200191610ce4565b820191906000526020600020905b815481529060010190602001808311610cc757829003601f168201915b505050918352505060038201546001600160a01b03166020820152600482018054604090920191610d149061210c565b80601f0160208091040260200160405190810160405280929190818152602001828054610d409061210c565b8015610d8d5780601f10610d6257610100808354040283529160200191610d8d565b820191906000526020600020905b815481529060010190602001808311610d7057829003601f168201915b50505050508152602001600582018054610da69061210c565b80601f0160208091040260200160405190810160405280929190818152602001828054610dd29061210c565b8015610e1f5780601f10610df457610100808354040283529160200191610e1f565b820191906000526020600020905b815481529060010190602001808311610e0257829003601f168201915b505050505081526020016006820154815260200160078201805480602002602001604051908101604052809291908181526020018280548015610e8b57602002820191906000526020600020905b81546001600160a01b03168152600190910190602001808311610e6d575b50505050508152602001600882015481525050828281518110610eb057610eb0612146565b60200260200101819052508080610ec690612172565b915050610b98565b5092915050565b6006546001600160a01b03163314610f465760405162461bcd60e51b815260206004820152602e60248201527f4f6e6c792074686520636f6e7472616374206f776e65722063616e2063616c6c60448201526d103a3434b990333ab731ba34b7b760911b60648201526084016104d6565b600755565b6006546001600160a01b03163314610fbc5760405162461bcd60e51b815260206004820152602e60248201527f4f6e6c792074686520636f6e7472616374206f776e65722063616e2063616c6c60448201526d103a3434b990333ab731ba34b7b760911b60648201526084016104d6565b600680547fffffffffffffffffffffff00ffffffffffffffffffffffffffffffffffffffff16905542600155610ff381607861218b565b60035550565b6006546001600160a01b0316331461106a5760405162461bcd60e51b815260206004820152602e60248201527f4f6e6c792074686520636f6e7472616374206f776e65722063616e2063616c6c60448201526d103a3434b990333ab731ba34b7b760911b60648201526084016104d6565b42600355565b6006546001600160a01b031633146110e15760405162461bcd60e51b815260206004820152602e60248201527f4f6e6c792074686520636f6e7472616374206f776e65722063616e2063616c6c60448201526d103a3434b990333ab731ba34b7b760911b60648201526084016104d6565b600255565b6006546001600160a01b031633146111575760405162461bcd60e51b815260206004820152602e60248201527f4f6e6c792074686520636f6e7472616374206f776e65722063616e2063616c6c60448201526d103a3434b990333ab731ba34b7b760911b60648201526084016104d6565b611163600c6000611b6f565b60008055565b600b602052816000526040600020818154811061118557600080fd5b6000918252602090912001546001600160a01b03169150829050565b600c81815481106111b157600080fd5b600091825260209091206009909102018054600182018054919350906111d69061210c565b80601f01602080910402602001604051908101604052809291908181526020018280546112029061210c565b801561124f5780601f106112245761010080835404028352916020019161124f565b820191906000526020600020905b81548152906001019060200180831161123257829003601f168201915b5050505050908060020180546112649061210c565b80601f01602080910402602001604051908101604052809291908181526020018280546112909061210c565b80156112dd5780601f106112b2576101008083540402835291602001916112dd565b820191906000526020600020905b8154815290600101906020018083116112c057829003601f168201915b505050600384015460048501805494956001600160a01b039092169491935091506113079061210c565b80601f01602080910402602001604051908101604052809291908181526020018280546113339061210c565b80156113805780601f1061135557610100808354040283529160200191611380565b820191906000526020600020905b81548152906001019060200180831161136357829003601f168201915b5050505050908060050180546113959061210c565b80601f01602080910402602001604051908101604052809291908181526020018280546113c19061210c565b801561140e5780601f106113e35761010080835404028352916020019161140e565b820191906000526020600020905b8154815290600101906020018083116113f157829003601f168201915b5050505050908060060154908060080154905088565b600960205260009081526040902080546001820180549192916111d69061210c565b6008818154811061145657600080fd5b6000918252602090912001546001600160a01b0316905081565b6005546000908152600b60209081526040918290208054835181840281018401909452808452606093928301828280156114d357602002820191906000526020600020905b81546001600160a01b031681526001909101906020018083116114b5575b5050505050905090565b600c546005116115555760405162461bcd60e51b815260206004820152602860248201527f4d6178203520506f6f6c732063616e20626520746865726520696e207468652060448201527f656c656374696f6e00000000000000000000000000000000000000000000000060648201526084016104d6565b600654600160a01b900460ff16156115af5760405162461bcd60e51b815260206004820152601260248201527f766f74696e67206861732073746172746564000000000000000000000000000060448201526064016104d6565b60008054808252600960205260409091208181556001016115d086826121f3565b5060008181526009602052604090206002016115ec85826121f3565b50600081815260096020526040902060040161160884826121f3565b50600081815260096020526040902060050161162483826121f3565b5060008181526009602081905260408220600681018390556002546008820155600c8054600180820183559190945281547fdf6966c971051c3d54ec59162606531493a51404a002842f56009d7e5cf4a8c79490930293840192835590927fdf6966c971051c3d54ec59162606531493a51404a002842f56009d7e5cf4a8c801906116b1908401826122b3565b506002818101906116c4908401826122b3565b5060038281015490820180546001600160a01b0319166001600160a01b039092169190911790556004808201906116fd908401826122b3565b50600581810190611710908401826122b3565b50600682015481600601556007820181600701908054611731929190611b93565b5060089182015491015560005461174990600161218b565b6000556040518181527f935b3a997c9f04e5dfd648e607bd2ecbc0b6a6f414c856e77c8b1126720899589060200160405180910390a15050505050565b6006546001600160a01b031633146117f75760405162461bcd60e51b815260206004820152602e60248201527f4f6e6c792074686520636f6e7472616374206f776e65722063616e2063616c6c60448201526d103a3434b990333ab731ba34b7b760911b60648201526084016104d6565b60005b600c54811015611893576000818152600960205260408120818155906118236001830182611be3565b611831600283016000611be3565b6003820180546001600160a01b0319169055611851600483016000611be3565b61185f600583016000611be3565b60068201600090556007820160006118779190611c1d565b506000600891909101558061188b81612172565b9150506117fa565b506118a0600c6000611b6f565b565b6006546000906001600160a01b031633146119165760405162461bcd60e51b815260206004820152602e60248201527f4f6e6c792074686520636f6e7472616374206f776e65722063616e2063616c6c60448201526d103a3434b990333ab731ba34b7b760911b60648201526084016104d6565b60035442101561198e5760405162461bcd60e51b815260206004820152603360248201527f526573756c742077696c6c206265206465636c6172656420616674657220746960448201527f6d6520656e647320666f7220566f74696e672e0000000000000000000000000060648201526084016104d6565b60008060005b600c548111611a135760008181526009602052604090206006015483106119bb57816119cb565b6000818152600960205260409020545b60008281526009602052604090206006015490925083106119ec57826119ff565b6000818152600960205260409020600601545b925080611a0b81612172565b915050611994565b506000818152600960209081526040808320546005819055808452600b9092529091208054611a4491600891611b93565b507f4129b95ccc0724b4ecd830983f1068fe2adf7c4553dbf20cfdafd2b143a6fcf0826008604051611a7792919061238e565b60405180910390a15091505090565b6006546001600160a01b03163314611af75760405162461bcd60e51b815260206004820152602e60248201527f4f6e6c792074686520636f6e7472616374206f776e65722063616e2063616c6c60448201526d103a3434b990333ab731ba34b7b760911b60648201526084016104d6565b6001600160a01b038116611b4d5760405162461bcd60e51b815260206004820152600f60248201527f496e76616c69642061646472657373000000000000000000000000000000000060448201526064016104d6565b600680546001600160a01b0319166001600160a01b0392909216919091179055565b5080546000825560090290600052602060002090810190611b909190611c3b565b50565b828054828255906000526020600020908101928215611bd35760005260206000209182015b82811115611bd3578254825591600101919060010190611bb8565b50611bdf929150611cb9565b5090565b508054611bef9061210c565b6000825580601f10611bff575050565b601f016020900490600052602060002090810190611b909190611cb9565b5080546000825590600052602060002090810190611b909190611cb9565b80821115611bdf576000808255611c556001830182611be3565b611c63600283016000611be3565b6003820180546001600160a01b0319169055611c83600483016000611be3565b611c91600583016000611be3565b6006820160009055600782016000611ca99190611c1d565b5060006008820155600901611c3b565b5b80821115611bdf5760008155600101611cba565b600060208284031215611ce057600080fd5b5035919050565b600060208284031215611cf957600080fd5b81356001600160a01b0381168114611d1057600080fd5b9392505050565b6000815180845260005b81811015611d3d57602081850181015186830182015201611d21565b506000602082860101526020601f19601f83011685010191505092915050565b600081518084526020808501945080840160005b83811015611d965781516001600160a01b031687529582019590820190600101611d71565b509495945050505050565b60006020808301818452808551808352604092508286019150828160051b87010184880160005b83811015611ea957603f1989840301855281516101208151855288820151818a870152611df782870182611d17565b9150508782015185820389870152611e0f8282611d17565b915050606080830151611e2c828801826001600160a01b03169052565b505060808083015186830382880152611e458382611d17565b9250505060a08083015186830382880152611e608382611d17565b9250505060c080830151818701525060e08083015186830382880152611e868382611d5d565b610100948501519790940196909652505094870194925090860190600101611dc8565b509098975050505050505050565b60008060408385031215611eca57600080fd5b50508035926020909101359150565b60006101008a8352806020840152611ef38184018b611d17565b90508281036040840152611f07818a611d17565b90506001600160a01b03881660608401528281036080840152611f2a8188611d17565b905082810360a0840152611f3e8187611d17565b60c0840195909552505060e001529695505050505050565b6020808252825182820181905260009190848201906040850190845b81811015611f975783516001600160a01b031683529284019291840191600101611f72565b50909695505050505050565b634e487b7160e01b600052604160045260246000fd5b600082601f830112611fca57600080fd5b813567ffffffffffffffff80821115611fe557611fe5611fa3565b604051601f8301601f19908116603f0116810190828211818310171561200d5761200d611fa3565b8160405283815286602085880101111561202657600080fd5b836020870160208301376000602085830101528094505050505092915050565b6000806000806080858703121561205c57600080fd5b843567ffffffffffffffff8082111561207457600080fd5b61208088838901611fb9565b9550602087013591508082111561209657600080fd5b6120a288838901611fb9565b945060408701359150808211156120b857600080fd5b6120c488838901611fb9565b935060608701359150808211156120da57600080fd5b506120e787828801611fb9565b91505092959194509250565b60006020828403121561210557600080fd5b5051919050565b600181811c9082168061212057607f821691505b60208210810361214057634e487b7160e01b600052602260045260246000fd5b50919050565b634e487b7160e01b600052603260045260246000fd5b634e487b7160e01b600052601160045260246000fd5b6000600182016121845761218461215c565b5060010190565b8082018082111561219e5761219e61215c565b92915050565b601f8211156121ee57600081815260208120601f850160051c810160208610156121cb5750805b601f850160051c820191505b818110156121ea578281556001016121d7565b5050505b505050565b815167ffffffffffffffff81111561220d5761220d611fa3565b6122218161221b845461210c565b846121a4565b602080601f831160018114612256576000841561223e5750858301515b600019600386901b1c1916600185901b1785556121ea565b600085815260208120601f198616915b8281101561228557888601518255948401946001909101908401612266565b50858210156122a35787850151600019600388901b60f8161c191681555b5050505050600190811b01905550565b8181036122be575050565b6122c8825461210c565b67ffffffffffffffff8111156122e0576122e0611fa3565b6122ee8161221b845461210c565b6000601f821160018114612322576000831561230a5750848201545b600019600385901b1c1916600184901b178455612387565b600085815260209020601f19841690600086815260209020845b8381101561235c578286015482556001958601959091019060200161233c565b508583101561237a5781850154600019600388901b60f8161c191681555b50505060018360011b0184555b5050505050565b60006040820184835260206040818501528185548084526060860191508660005282600020935060005b818110156123dd5784546001600160a01b0316835260019485019492840192016123b8565b509097965050505050505056fea2646970667358221220daab5d0e15638f038a80943abece90d8a8656913db79a1eb776227c49c5cfd9264736f6c63430008120033",
  "linkReferences": {},
  "deployedLinkReferences": {}
}